{"abi":[{"type":"constructor","inputs":[],"stateMutability":"nonpayable"},{"type":"function","name":"acceptOwnership","inputs":[],"outputs":[],"stateMutability":"nonpayable"},{"type":"function","name":"cancelMatch","inputs":[{"name":"matchId","type":"uint256","internalType":"uint256"}],"outputs":[],"stateMutability":"nonpayable"},{"type":"function","name":"createMatch","inputs":[{"name":"gameId","type":"uint256","internalType":"uint256"},{"name":"matchId","type":"uint256","internalType":"uint256"},{"name":"stakeAmount","type":"uint256","internalType":"uint256"}],"outputs":[],"stateMutability":"payable"},{"type":"function","name":"expireMatch","inputs":[{"name":"matchId","type":"uint256","internalType":"uint256"}],"outputs":[],"stateMutability":"nonpayable"},{"type":"function","name":"feeBalances","inputs":[{"name":"","type":"address","internalType":"address"}],"outputs":[{"name":"","type":"uint256","internalType":"uint256"}],"stateMutability":"view"},{"type":"function","name":"gameVerifiers","inputs":[{"name":"","type":"uint256","internalType":"uint256"},{"name":"","type":"address","internalType":"address"}],"outputs":[{"name":"","type":"bool","internalType":"bool"}],"stateMutability":"view"},{"type":"function","name":"games","inputs":[{"name":"","type":"uint256","internalType":"uint256"}],"outputs":[{"name":"admin","type":"address","internalType":"address"},{"name":"mode","type":"uint8","internalType":"enum AMPTypes.SettlementMode"},{"name":"minStake","type":"uint256","internalType":"uint256"},{"name":"stakeToken","type":"address","internalType":"address"},{"name":"arbiter","type":"address","internalType":"address"},{"name":"matchTimeout","type":"uint256","internalType":"uint256"}],"stateMutability":"view"},{"type":"function","name":"getGameVerifiers","inputs":[{"name":"gameId","type":"uint256","internalType":"uint256"}],"outputs":[{"name":"","type":"address[]","internalType":"address[]"}],"stateMutability":"view"},{"type":"function","name":"isVerifier","inputs":[{"name":"gameId","type":"uint256","internalType":"uint256"},{"name":"addr","type":"address","internalType":"address"}],"outputs":[{"name":"","type":"bool","internalType":"bool"}],"stateMutability":"view"},{"type":"function","name":"joinMatch","inputs":[{"name":"matchId","type":"uint256","internalType":"uint256"}],"outputs":[],"stateMutability":"payable"},{"type":"function","name":"matches","inputs":[{"name":"","type":"uint256","internalType":"uint256"}],"outputs":[{"name":"gameId","type":"uint256","internalType":"uint256"},{"name":"playerA","type":"address","internalType":"address"},{"name":"state","type":"uint8","internalType":"enum AMPTypes.MatchState"},{"name":"playerB","type":"address","internalType":"address"},{"name":"createdAt","type":"uint64","internalType":"uint64"},{"name":"stakeAmount","type":"uint256","internalType":"uint256"},{"name":"stakeAmountB","type":"uint256","internalType":"uint256"}],"stateMutability":"view"},{"type":"function","name":"nextGameId","inputs":[],"outputs":[{"name":"","type":"uint256","internalType":"uint256"}],"stateMutability":"view"},{"type":"function","name":"owner","inputs":[],"outputs":[{"name":"","type":"address","internalType":"address"}],"stateMutability":"view"},{"type":"function","name":"pause","inputs":[],"outputs":[],"stateMutability":"nonpayable"},{"type":"function","name":"paused","inputs":[],"outputs":[{"name":"","type":"bool","internalType":"bool"}],"stateMutability":"view"},{"type":"function","name":"pendingOwner","inputs":[],"outputs":[{"name":"","type":"address","internalType":"address"}],"stateMutability":"view"},{"type":"function","name":"pendingWithdrawals","inputs":[{"name":"","type":"address","internalType":"address"},{"name":"","type":"address","internalType":"address"}],"outputs":[{"name":"","type":"uint256","internalType":"uint256"}],"stateMutability":"view"},{"type":"function","name":"registerGame","inputs":[{"name":"mode","type":"uint8","internalType":"enum AMPTypes.SettlementMode"},{"name":"verifiers","type":"address[]","internalType":"address[]"},{"name":"minStake","type":"uint256","internalType":"uint256"},{"name":"stakeToken","type":"address","internalType":"address"},{"name":"arbiter","type":"address","internalType":"address"}],"outputs":[{"name":"gameId","type":"uint256","internalType":"uint256"}],"stateMutability":"nonpayable"},{"type":"function","name":"renounceOwnership","inputs":[],"outputs":[],"stateMutability":"nonpayable"},{"type":"function","name":"setMatchTimeout","inputs":[{"name":"gameId","type":"uint256","internalType":"uint256"},{"name":"timeoutSeconds","type":"uint256","internalType":"uint256"}],"outputs":[],"stateMutability":"nonpayable"},{"type":"function","name":"setSettlement","inputs":[{"name":"settlementAddress","type":"address","internalType":"address"}],"outputs":[],"stateMutability":"nonpayable"},{"type":"function","name":"settleMatch","inputs":[{"name":"matchId","type":"uint256","internalType":"uint256"},{"name":"newState","type":"uint8","internalType":"enum AMPTypes.MatchState"},{"name":"feeRecipient","type":"address","internalType":"address"},{"name":"recipients","type":"address[]","internalType":"address[]"},{"name":"amounts","type":"uint256[]","internalType":"uint256[]"},{"name":"protocolFee","type":"uint256","internalType":"uint256"}],"outputs":[],"stateMutability":"nonpayable"},{"type":"function","name":"settlement","inputs":[],"outputs":[{"name":"","type":"address","internalType":"address"}],"stateMutability":"view"},{"type":"function","name":"transferOwnership","inputs":[{"name":"newOwner","type":"address","internalType":"address"}],"outputs":[],"stateMutability":"nonpayable"},{"type":"function","name":"unpause","inputs":[],"outputs":[],"stateMutability":"nonpayable"},{"type":"function","name":"updateGameVerifiers","inputs":[{"name":"gameId","type":"uint256","internalType":"uint256"},{"name":"verifiers","type":"address[]","internalType":"address[]"}],"outputs":[],"stateMutability":"nonpayable"},{"type":"function","name":"withdraw","inputs":[{"name":"token","type":"address","internalType":"address"}],"outputs":[],"stateMutability":"nonpayable"},{"type":"function","name":"withdrawFees","inputs":[{"name":"token","type":"address","internalType":"address"}],"outputs":[],"stateMutability":"nonpayable"},{"type":"event","name":"FeesWithdrawn","inputs":[{"name":"token","type":"address","indexed":true,"internalType":"address"},{"name":"amount","type":"uint256","indexed":false,"internalType":"uint256"},{"name":"wallet","type":"address","indexed":true,"internalType":"address"}],"anonymous":false},{"type":"event","name":"GameRegistered","inputs":[{"name":"gameId","type":"uint256","indexed":true,"internalType":"uint256"},{"name":"admin","type":"address","indexed":true,"internalType":"address"},{"name":"mode","type":"uint8","indexed":false,"internalType":"enum AMPTypes.SettlementMode"}],"anonymous":false},{"type":"event","name":"GameVerifiersUpdated","inputs":[{"name":"gameId","type":"uint256","indexed":true,"internalType":"uint256"}],"anonymous":false},{"type":"event","name":"MatchCancelled","inputs":[{"name":"matchId","type":"uint256","indexed":true,"internalType":"uint256"},{"name":"playerA","type":"address","indexed":true,"internalType":"address"},{"name":"refundAmount","type":"uint256","indexed":false,"internalType":"uint256"}],"anonymous":false},{"type":"event","name":"MatchCreated","inputs":[{"name":"matchId","type":"uint256","indexed":true,"internalType":"uint256"},{"name":"gameId","type":"uint256","indexed":true,"internalType":"uint256"},{"name":"playerA","type":"address","indexed":true,"internalType":"address"},{"name":"stakeAmount","type":"uint256","indexed":false,"internalType":"uint256"}],"anonymous":false},{"type":"event","name":"MatchExpired","inputs":[{"name":"matchId","type":"uint256","indexed":true,"internalType":"uint256"}],"anonymous":false},{"type":"event","name":"MatchJoined","inputs":[{"name":"matchId","type":"uint256","indexed":true,"internalType":"uint256"},{"name":"playerB","type":"address","indexed":true,"internalType":"address"}],"anonymous":false},{"type":"event","name":"OwnershipTransferStarted","inputs":[{"name":"previousOwner","type":"address","indexed":true,"internalType":"address"},{"name":"newOwner","type":"address","indexed":true,"internalType":"address"}],"anonymous":false},{"type":"event","name":"OwnershipTransferred","inputs":[{"name":"previousOwner","type":"address","indexed":true,"internalType":"address"},{"name":"newOwner","type":"address","indexed":true,"internalType":"address"}],"anonymous":false},{"type":"event","name":"Paused","inputs":[{"name":"account","type":"address","indexed":false,"internalType":"address"}],"anonymous":false},{"type":"event","name":"SettlementUpdated","inputs":[{"name":"settlementAddress","type":"address","indexed":true,"internalType":"address"}],"anonymous":false},{"type":"event","name":"Unpaused","inputs":[{"name":"account","type":"address","indexed":false,"internalType":"address"}],"anonymous":false},{"type":"event","name":"WithdrawalClaimed","inputs":[{"name":"token","type":"address","indexed":true,"internalType":"address"},{"name":"account","type":"address","indexed":true,"internalType":"address"},{"name":"amount","type":"uint256","indexed":false,"internalType":"uint256"}],"anonymous":false},{"type":"error","name":"CannotJoinOwnMatch","inputs":[]},{"type":"error","name":"DisputeTimeoutNotReached","inputs":[]},{"type":"error","name":"EnforcedPause","inputs":[]},{"type":"error","name":"ExpectedPause","inputs":[]},{"type":"error","name":"InvalidNewState","inputs":[]},{"type":"error","name":"InvalidSettlementAddress","inputs":[]},{"type":"error","name":"MatchAlreadyExists","inputs":[]},{"type":"error","name":"MatchNotExpirable","inputs":[]},{"type":"error","name":"MatchNotOpen","inputs":[]},{"type":"error","name":"MatchNotSettlable","inputs":[]},{"type":"error","name":"NativeTokenSentForERC20","inputs":[]},{"type":"error","name":"NoFeesToWithdraw","inputs":[]},{"type":"error","name":"NoPendingWithdrawal","inputs":[]},{"type":"error","name":"NotExpiredYet","inputs":[]},{"type":"error","name":"NotGameAdmin","inputs":[]},{"type":"error","name":"NotPlayerA","inputs":[]},{"type":"error","name":"NotSettlement","inputs":[]},{"type":"error","name":"OwnableInvalidOwner","inputs":[{"name":"owner","type":"address","internalType":"address"}]},{"type":"error","name":"OwnableUnauthorizedAccount","inputs":[{"name":"account","type":"address","internalType":"address"}]},{"type":"error","name":"RTModeRequiresArbiter","inputs":[]},{"type":"error","name":"ReentrancyGuardReentrantCall","inputs":[]},{"type":"error","name":"SafeERC20FailedOperation","inputs":[{"name":"token","type":"address","internalType":"address"}]},{"type":"error","name":"StakeMismatch","inputs":[]},{"type":"error","name":"StakeTooLow","inputs":[]},{"type":"error","name":"TimeoutTooLong","inputs":[]},{"type":"error","name":"TimeoutTooShort","inputs":[]},{"type":"error","name":"TooManyVerifiers","inputs":[]},{"type":"error","name":"TransferFailed","inputs":[]}],"bytecode":{"object":"0x60806040523461002757610011610036565b61001961002c565b613bbe6103b58239613bbe90f35b610032565b60405190565b5f80fd5b61003f336100cd565b565b90565b90565b90565b61005e61005961006392610041565b610047565b610044565b90565b610070600161004a565b90565b5f1b90565b906100845f1991610073565b9181191691161790565b6100a261009d6100a792610044565b610047565b610044565b90565b90565b906100c26100bd6100c99261008e565b6100aa565b8254610078565b9055565b6100d6906100fa565b6100f86100e1610066565b5f6100f26100ed610218565b61022c565b016100ad565b565b61010390610105565b565b61010e90610174565b565b90565b60018060a01b031690565b61013261012d61013792610110565b610047565b610113565b90565b6101439061011e565b90565b61014f90610113565b90565b61015b90610146565b9052565b9190610172905f60208501940190610152565b565b8061018f6101896101845f61013a565b610146565b91610146565b1461019f5761019d906102ce565b565b6101c26101ab5f61013a565b5f918291631e4fbdf760e01b83526004830161015f565b0390fd5b5f90565b90565b90565b6101e46101df6101e9926101ca565b610073565b6101cd565b90565b6102157f9b779b17422d0df92223018b32b4d1fa46e071723d6817e2486d003becc55f006101d0565b90565b6102206101c6565b506102296101ec565b90565b90565b1b90565b9190600861025391029161024d60018060a01b038461022f565b9261022f565b9181191691161790565b61027161026c61027692610113565b610047565b610113565b90565b6102829061025d565b90565b61028e90610279565b90565b90565b91906102aa6102a56102b293610285565b610291565b908354610233565b9055565b5f90565b6102cc916102c66102b6565b91610294565b565b6102e2906102dd5f60016102ba565b610355565b565b5f1c90565b60018060a01b031690565b610300610305916102e4565b6102e9565b90565b61031290546102f4565b90565b9061032660018060a01b0391610073565b9181191691161790565b9061034561034061034c92610285565b610291565b8254610315565b9055565b5f0190565b61035e5f610308565b610368825f610330565b9061039c6103967f8be0079c531659141344cd1fd0a4f28419497f9722a3daafe3b4186f6b6457e093610285565b91610285565b916103a561002c565b806103af81610350565b0390a356fe60806040526004361015610013575b6110fa565b61001d5f356101dc565b8063099a3548146101d7578063117a5b90146101d2578063164e68de146101cd57806316e3321c146101c85780631c49205a146101c357806322acadfe146101be5780632dee6e0a146101b95780633f4ba83a146101b45780634768d4ef146101af5780634db749c9146101aa57806351160630146101a557806351cff8d9146101a057806353afc0251461019b5780635c975abb14610196578063715018a61461019157806379ba50971461018c57806380f36476146101875780638456cb59146101825780638da5cb5b1461017d5780638e9917b8146101785780638f4e6f3714610173578063a3dc85d81461016e578063b135bbb014610169578063d02c8cdf14610164578063e30c39781461015f578063e831be581461015a578063f2fde38b146101555763feb8c4380361000e576110d1565b61109e565b611068565b610fcf565b610f9c565b610f67565b610f22565b610eef565b610ebb565b610e40565b610e0d565b610dd0565b610cab565b610c78565b610c43565b610c0e565b610b86565b610b51565b610ad2565b6109f7565b61083d565b6107fa565b610797565b610656565b610535565b610502565b610485565b610255565b60e01c90565b60405190565b5f80fd5b5f80fd5b90565b6101fc816101f0565b0361020357565b5f80fd5b90503590610214826101f3565b565b909160608284031261024b57610248610231845f8501610207565b9361023f8160208601610207565b93604001610207565b90565b6101e8565b5f0190565b610269610263366004610216565b916118c3565b6102716101e2565b8061027b81610250565b0390f35b5f80fd5b9060208282031261029c57610299915f01610207565b90565b6101e8565b90565b6102b86102b36102bd926101f0565b6102a1565b6101f0565b90565b906102ca906102a4565b5f5260205260405f2090565b5f1c90565b60018060a01b031690565b6102f26102f7916102d6565b6102db565b90565b61030490546102e6565b90565b60a01c90565b60ff1690565b61031f61032491610307565b61030d565b90565b6103319054610313565b90565b90565b610343610348916102d6565b610334565b90565b6103559054610337565b90565b6103639060066102c0565b9061036f5f83016102fa565b9161037b5f8201610327565b916103886002830161034b565b91610395600382016102fa565b916103ae60056103a7600485016102fa565b930161034b565b90565b60018060a01b031690565b6103c5906103b1565b90565b6103d1906103bc565b9052565b634e487b7160e01b5f52602160045260245ffd5b600211156103f357565b6103d5565b90610402826103e9565b565b61040d906103f8565b90565b61041990610404565b9052565b610426906101f0565b9052565b919461047261047c9298979561046860a09661045e6104839a61045460c08a019e5f8b01906103c8565b6020890190610410565b604087019061041d565b60608501906103c8565b60808301906103c8565b019061041d565b565b346104bc576104b86104a061049b366004610283565b610358565b926104af9694969291926101e2565b9687968761042a565b0390f35b61027f565b6104ca816103bc565b036104d157565b5f80fd5b905035906104e2826104c1565b565b906020828203126104fd576104fa915f016104d5565b90565b6101e8565b346105305761051a6105153660046104e4565b611ad9565b6105226101e2565b8061052c81610250565b0390f35b61027f565b346105635761054d610548366004610283565b611e53565b6105556101e2565b8061055f81610250565b0390f35b61027f565b6002111561057257565b5f80fd5b9050359061058382610568565b565b5f80fd5b5f80fd5b5f80fd5b909182601f830112156105cb5781359167ffffffffffffffff83116105c65760200192602083028401116105c157565b61058d565b610589565b610585565b91909160a08184031261063c576105e9835f8301610576565b92602082013567ffffffffffffffff8111610637578161060a918401610591565b92909361063461061d8460408501610207565b9361062b81606086016104d5565b936080016104d5565b90565b6101ec565b6101e8565b9190610654905f6020850194019061041d565b565b3461068d5761068961067861066c3660046105d0565b949390939291926123f1565b6106806101e2565b91829182610641565b0390f35b61027f565b91906040838203126106ba57806106ae6106b7925f8601610207565b936020016104d5565b90565b6101e8565b906106c9906102a4565b5f5260205260405f2090565b6106e96106e46106ee926103b1565b6102a1565b6103b1565b90565b6106fa906106d5565b90565b610706906106f1565b90565b90610713906106fd565b5f5260205260405f2090565b1c90565b60ff1690565b61073990600861073e930261071f565b610723565b90565b9061074c9154610729565b90565b61076861076d926107636008935f946106bf565b610709565b610741565b90565b151590565b61077e90610770565b9052565b9190610795905f60208501940190610775565b565b346107c8576107c46107b36107ad366004610692565b9061074f565b6107bb6101e2565b91829182610782565b0390f35b61027f565b91906040838203126107f557806107e96107f2925f8601610207565b93602001610207565b90565b6101e8565b346108295761081361080d3660046107cd565b90612448565b61081b6101e2565b8061082581610250565b0390f35b61027f565b5f91031261083857565b6101e8565b3461086b5761084d36600461082e565b610855612533565b61085d6101e2565b8061086781610250565b0390f35b61027f565b9061087a906102a4565b5f5260205260405f2090565b60ff1690565b61089861089d91610307565b610886565b90565b6108aa905461088c565b90565b67ffffffffffffffff1690565b6108c66108cb91610307565b6108ad565b90565b6108d890546108ba565b90565b6108e6906007610870565b6108f15f820161034b565b916108fe600183016102fa565b9161090b600182016108a0565b91610918600283016102fa565b91610925600282016108ce565b9161093e60046109376003850161034b565b930161034b565b90565b6005111561094b57565b6103d5565b9061095a82610941565b565b61096590610950565b90565b6109719061095c565b9052565b67ffffffffffffffff1690565b61098b90610975565b9052565b949290979695939160e08601985f87016109a89161041d565b602086016109b5916103c8565b604085016109c291610968565b606084016109cf916103c8565b608083016109dc91610982565b60a082016109e99161041d565b60c0016109f59161041d565b565b34610a2e57610a2a610a12610a0d366004610283565b6108db565b93610a219795979391936101e2565b9788978861098f565b0390f35b61027f565b5190565b60209181520190565b60200190565b610a4f906103bc565b9052565b90610a6081602093610a46565b0190565b60200190565b90610a87610a81610a7a84610a33565b8093610a37565b92610a40565b905f5b818110610a975750505090565b909192610ab0610aaa6001928651610a53565b94610a64565b9101919091610a8a565b610acf9160208201915f818403910152610a6a565b90565b34610b0257610afe610aed610ae8366004610283565b6125f0565b610af56101e2565b91829182610aba565b0390f35b61027f565b610b17906008610b1c930261071f565b6102db565b90565b90610b2a9154610b07565b90565b610b3960025f90610b1f565b90565b9190610b4f905f602085019401906103c8565b565b34610b8157610b6136600461082e565b610b7d610b6c610b2d565b610b746101e2565b91829182610b3c565b0390f35b61027f565b34610bb457610b9e610b993660046104e4565b612781565b610ba66101e2565b80610bb081610250565b0390f35b61027f565b90610bc3906106fd565b5f5260205260405f2090565b610bdf906008610be4930261071f565b610334565b90565b90610bf29154610bcf565b90565b610c0b90610c066004915f92610bb9565b610be7565b90565b34610c3e57610c3a610c29610c243660046104e4565b610bf5565b610c316101e2565b91829182610641565b0390f35b61027f565b34610c7357610c5336600461082e565b610c6f610c5e6127b1565b610c666101e2565b91829182610782565b0390f35b61027f565b34610ca657610c8836600461082e565b610c906127ec565b610c986101e2565b80610ca281610250565b0390f35b61027f565b34610cd957610cbb36600461082e565b610cc36127f6565b610ccb6101e2565b80610cd581610250565b0390f35b61027f565b60051115610ce857565b5f80fd5b90503590610cf982610cde565b565b909182601f83011215610d355781359167ffffffffffffffff8311610d30576020019260208302840111610d2b57565b61058d565b610589565b610585565b60c081830312610dcb57610d50825f8301610207565b92610d5e8360208401610cec565b92610d6c81604085016104d5565b92606081013567ffffffffffffffff8111610dc65782610d8d918301610591565b929093608083013567ffffffffffffffff8111610dc157610db383610dbe928601610cfb565b93909460a001610207565b90565b6101ec565b6101ec565b6101e8565b34610e0857610df2610de3366004610d3a565b96959095949194939293612bf7565b610dfa6101e2565b80610e0481610250565b0390f35b61027f565b34610e3b57610e1d36600461082e565b610e25612c25565b610e2d6101e2565b80610e3781610250565b0390f35b61027f565b34610e7057610e5036600461082e565b610e6c610e5b612c33565b610e636101e2565b91829182610b3c565b0390f35b61027f565b919091604081840312610eb657610e8e835f8301610207565b92602082013567ffffffffffffffff8111610eb157610ead9201610591565b9091565b6101ec565b6101e8565b34610eea57610ed4610ece366004610e75565b91612ccc565b610edc6101e2565b80610ee681610250565b0390f35b61027f565b34610f1d57610f07610f023660046104e4565b612e64565b610f0f6101e2565b80610f1981610250565b0390f35b61027f565b34610f5357610f4f610f3e610f38366004610692565b90612e90565b610f466101e2565b91829182610782565b0390f35b61027f565b610f6460035f90610be7565b90565b34610f9757610f7736600461082e565b610f93610f82610f58565b610f8a6101e2565b91829182610641565b0390f35b61027f565b34610fca57610fb4610faf366004610283565b61306b565b610fbc6101e2565b80610fc681610250565b0390f35b61027f565b34610fff57610fdf36600461082e565b610ffb610fea613076565b610ff26101e2565b91829182610b3c565b0390f35b61027f565b919060408382031261102c5780611020611029925f86016104d5565b936020016104d5565b90565b6101e8565b9061103b906106fd565b5f5260205260405f2090565b6110606110659261105b6005935f94611031565b610bb9565b610be7565b90565b346110995761109561108461107e366004611004565b90611047565b61108c6101e2565b91829182610641565b0390f35b61027f565b346110cc576110b66110b13660046104e4565b6130fe565b6110be6101e2565b806110c881610250565b0390f35b61027f565b6110e46110df366004610283565b6134b9565b6110ec6101e2565b806110f681610250565b0390f35b5f80fd5b90611111929161110c6134c4565b611113565b565b90611126929161112161351a565b611500565b61112e613572565b565b90565b61114761114261114c92611130565b6102a1565b6103b1565b90565b61115890611133565b90565b90565b5f90565b61117661117161117b92611130565b6102a1565b6101f0565b90565b611187906106d5565b90565b6111939061117e565b90565b61119f906106f1565b90565b6111ab906106f1565b90565b601f801991011690565b634e487b7160e01b5f52604160045260245ffd5b906111d6906111ae565b810190811067ffffffffffffffff8211176111f057604052565b6111b8565b60e01b90565b90505190611208826101f3565b565b9060208282031261122357611220915f016111fb565b90565b6101e8565b6112306101e2565b3d5f823e3d90fd5b634e487b7160e01b5f52601160045260245ffd5b61125b611261919392936101f0565b926101f0565b820391821161126c57565b611238565b61128561128061128a926101f0565b6102a1565b610975565b90565b906112a06112996101e2565b92836111cc565b565b6112ac60e061128d565b90565b906112b9906101f0565b9052565b906112c7906103bc565b9052565b906112d590610950565b9052565b906112e390610975565b9052565b6112f190516101f0565b90565b5f1b90565b906113055f19916112f4565b9181191691161790565b90565b9061132761132261132e926102a4565b61130f565b82546112f9565b9055565b61133c90516103bc565b90565b9061135060018060a01b03916112f4565b9181191691161790565b90565b9061137261136d611379926106fd565b61135a565b825461133f565b9055565b6113879051610950565b90565b60a01b90565b9061139f60ff60a01b9161138a565b9181191691161790565b6113b290610950565b90565b90565b906113cd6113c86113d4926113a9565b6113b5565b8254611390565b9055565b6113e29051610975565b90565b906113fb67ffffffffffffffff60a01b9161138a565b9181191691161790565b61141961141461141e92610975565b6102a1565b610975565b90565b90565b9061143961143461144092611405565b611421565b82546113e5565b9055565b906114ec60c060046114f2946114675f82016114615f88016112e7565b90611312565b6114806001820161147a60208801611332565b9061135d565b611499600182016114936040880161137d565b906113b8565b6114b2600282016114ac60608801611332565b9061135d565b6114cb600282016114c5608088016113d8565b90611424565b6114e4600382016114de60a088016112e7565b90611312565b0192016112e7565b90611312565b565b906114fe91611444565b565b91611518600161151260078590610870565b016102fa565b61153261152c6115275f61114f565b6103bc565b916103bc565b036118a75761154b611546600685906102c0565b61115b565b9061155461115e565b50611561600383016102fa565b61157b6115756115705f61114f565b6103bc565b916103bc565b145f146116c757506115a161159b611596600234940161034b565b6101f0565b916101f0565b106116ab5734905b82335f6115b59061114f565b9084905f925f426115c590611271565b926115ce6112a2565b965f8801906115dc916112af565b60208701906115ea916112bd565b60408601906115f8916112cb565b6060850190611606916112bd565b6080840190611614916112d9565b60a0830190611622916112af565b61162b90611162565b60c0820190611639916112af565b60078261164591610870565b9061164f916114f4565b913391927f76fa78785ce11e91f2820be98dac9263716886c4838d91ed61707a25429045cf9061167e906102a4565b91611688906102a4565b92611692906106fd565b9361169b6101e2565b6116a6819282610641565b0390a4565b5f631cc3b37b60e01b8152806116c360048201610250565b0390fd5b806116e56116df6116da6002860161034b565b6101f0565b916101f0565b1061188b57346116fd6116f75f611162565b916101f0565b0361186f57611755602061172361171e611719600387016102fa565b61118a565b611196565b6370a082319061174a611735306111a2565b9261173e6101e2565b958694859384936111f5565b835260048301610b3c565b03915afa801561186a576117ae6117a960036117e5966117a36117b3956020975f9161183d575b509761179161178c8585016102fa565b61118a565b903361179c306111a2565b9192613596565b016102fa565b61118a565b611196565b6370a08231906117da6117c5306111a2565b926117ce6101e2565b968794859384936111f5565b835260048301610b3c565b03915afa90811561183857611802925f92611808575b509061124c565b906115a9565b61182a91925060203d8111611831575b61182281836111cc565b81019061120a565b905f6117fb565b503d611818565b611228565b61185d9150883d8111611863575b61185581836111cc565b81019061120a565b5f61177c565b503d61184b565b611228565b5f63c788458560e01b81528061188760048201610250565b0390fd5b5f631cc3b37b60e01b8152806118a360048201610250565b0390fd5b5f63fc2bc70d60e01b8152806118bf60048201610250565b0390fd5b906118ce92916110fe565b565b6118e1906118dc6135e1565b6118e3565b565b6118f4906118ef61351a565b611986565b6118fc613572565b565b905090565b61190e5f80926118fe565b0190565b61191b90611903565b90565b67ffffffffffffffff811161193c576119386020916111ae565b0190565b6111b8565b9061195361194e8361191e565b61128d565b918252565b606090565b3d5f146119785761196d3d611941565b903d5f602084013e5b565b611980611958565b90611976565b61199a61199560048390610bb9565b61034b565b90816119ae6119a85f611162565b916101f0565b14611abd576119d06119bf5f611162565b6119cb60048490610bb9565b611312565b806119eb6119e56119e05f61114f565b6103bc565b916103bc565b145f14611a9d57611a265f806119ff612c33565b85611a086101e2565b9081611a1381611912565b03925af1611a1f61195d565b5015610770565b611a81575b611a33612c33565b90611a7c611a6a611a647f87044da2612407bc001bb0985725dcc651a0dc71eaabfd1d7e8617ca85a8c19c936106fd565b936106fd565b93611a736101e2565b91829182610641565b0390a3565b5f6312171d8360e31b815280611a9960048201610250565b0390fd5b611ab8611aa98261118a565b611ab1612c33565b849161362f565b611a2b565b5f630d00db4d60e31b815280611ad560048201610250565b0390fd5b611ae2906118d0565b565b611af590611af061351a565b611b97565b611afd613572565b565b90565b611b16611b11611b1b92610975565b6102a1565b6101f0565b90565b611b2d611b33919392936101f0565b926101f0565b8201809211611b3e57565b611238565b90565b611b5a611b55611b5f92611b43565b6102a1565b6101f0565b90565b611b71611b77919392936101f0565b926101f0565b91611b838382026101f0565b928184041490151715611b9257565b611238565b611bab611ba660078390610870565b611aff565b611bc9611bc46006611bbe5f850161034b565b906102c0565b61115b565b611bd5600183016108a0565b611be8611be26004610950565b91610950565b145f14611d7f5742611c3d611c37611c32611c05600287016108ce565b611c2d611c27611c176005890161034b565b611c216003611b46565b90611b62565b91611b02565b611b1e565b6101f0565b916101f0565b10611d63576003611c5c915b611c5682600186016113b8565b016102fa565b611ca4611c6b6003840161034b565b611c9e611c8f611c7d60058690611031565b611c89600188016102fa565b90610bb9565b91611c998361034b565b611b1e565b90611312565b611cb0600283016102fa565b611cca611cc4611cbf5f61114f565b6103bc565b916103bc565b03611d14575b5050611cfc7f954bf9e0348a427a5d16cc7c185b53a3e2254827f764c505d7694d4191318136916102a4565b90611d056101e2565b80611d0f81610250565b0390a2565b611d56611d4783611d416002611d3a611d326004611d5c990161034b565b966005611031565b92016102fa565b90610bb9565b91611d518361034b565b611b1e565b90611312565b5f80611cd0565b5f63d18c9cbf60e01b815280611d7b60048201610250565b0390fd5b611d8b600183016108a0565b611d9d611d975f610950565b91610950565b141580611e2c575b611e105742611de4611dde611dd9611dbf600287016108ce565b611dd4611dce6005880161034b565b91611b02565b611b1e565b6101f0565b916101f0565b10611df4576003611c5c91611c49565b5f63a8058ea960e01b815280611e0c60048201610250565b0390fd5b5f637b67d3b360e01b815280611e2860048201610250565b0390fd5b50611e39600183016108a0565b611e4c611e466001610950565b91610950565b1415611da5565b611e5c90611ae4565b565b90611e75969594939291611e706134c4565b612236565b90565b5090565b90565b611e93611e8e611e9892611e7c565b6102a1565b6101f0565b90565b611ea4906101f0565b5f198114611eb25760010190565b611238565b611ec160e061128d565b90565b90611ece906103f8565b9052565b67ffffffffffffffff8111611eea5760208091020190565b6111b8565b90929192611f04611eff82611ed2565b61128d565b9381855260208086019202830192818411611f4157915b838310611f285750505050565b60208091611f3684866104d5565b815201920191611f1b565b61058d565b611f51913691611eef565b90565b52565b90565b611f6e611f69611f7392611f57565b6102a1565b6101f0565b90565b611f8090516103f8565b90565b611f8c906103f8565b90565b90565b90611fa7611fa2611fae92611f83565b611f8f565b8254611390565b9055565b5190565b5490565b600190818003010490565b5f5260205f2090565b1b90565b91906008611fed910291611fe75f1984611fce565b92611fce565b9181191691161790565b919061200d612008612015936102a4565b61130f565b908354611fd2565b9055565b61202b9161202561115e565b91611ff7565b565b5f5b82811061203b57505050565b8061204a5f6001938501612019565b0161202f565b919080821061205f575b505050565b6120899261207861207261208093611fba565b93611fba565b918291611fc5565b0191039061202d565b5f808061205a565b906801000000000000000081116120ba57816120af6120b893611fb6565b90828155612050565b565b6111b8565b919060086120df9102916120d960018060a01b0384611fce565b92611fce565b9181191691161790565b6120f282610a33565b9167ffffffffffffffff83116121555761212061211a6001926121158686612091565b610a40565b92611fc5565b9204915f5b8381106121325750505050565b600190602061214861214386611332565b61135a565b9401938184015501612125565b6111b8565b90612164916120e9565b565b9061220d60c06005612213946121895f82016121835f8801611332565b9061135d565b6121a15f820161219b60208801611f76565b90611f92565b6121ba600182016121b460408801611fb2565b9061215a565b6121d3600282016121cd606088016112e7565b90611312565b6121ec600382016121e660808801611332565b9061135d565b612205600482016121ff60a08801611332565b9061135d565b0192016112e7565b90611312565b565b9061221f91612166565b565b9190612234905f60208501940190610410565b565b96959193969490945061224a848490611e78565b61225d612257600a611e7f565b916101f0565b116123d5578461227661227060016103f8565b916103f8565b14612399575b612286600361034b565b61228f81611e9b565b61229a906003611312565b9633928692868693919293610e10956122b1611eb7565b975f8901906122bf916112bd565b60208801906122cd91611ec4565b6122d691611f46565b60408601906122e491611f54565b60608501906122f2916112af565b6080840190612300916112bd565b60a083019061230e916112bd565b61231790611f5a565b60c0820190612325916112af565b600686612331916102c0565b9061233b91612215565b8491612346926136bb565b82903390917f5e09e945b03039ef5badcb234e5c97407df03696c59f589e8fbb6f32950b3e2590612376906102a4565b91612380906106fd565b926123896101e2565b612394819282612221565b0390a3565b816123b46123ae6123a95f61114f565b6103bc565b916103bc565b0361227c575f63c12c281f60e01b8152806123d160048201610250565b0390fd5b5f630ea8f78b60e31b8152806123ed60048201610250565b0390fd5b90612407959493929161240261115e565b611e5e565b90565b90565b61242161241c6124269261240a565b6102a1565b6101f0565b90565b90565b61244061243b61244592612429565b6102a1565b6101f0565b90565b3361247061246a6124655f61245f600687906102c0565b016102fa565b6103bc565b916103bc565b036124fb578161248a61248461012c61240d565b916101f0565b106124df57816124a561249f62278d0061242c565b916101f0565b116124c35760056124bb6124c1939260066102c0565b01611312565b565b5f637c4c3f4760e11b8152806124db60048201610250565b0390fd5b5f63e143262560e01b8152806124f760048201610250565b0390fd5b5f63d099646b60e01b81528061251360048201610250565b0390fd5b61251f6135e1565b612527612529565b565b6125316137b2565b565b61253b612517565b565b606090565b60209181520190565b61255590546102e6565b90565b60010190565b9061257b61257561256e84611fb6565b8093612542565b92611fc5565b905f5b81811061258b5750505090565b9091926125ab6125a56001926125a08761254b565b610a53565b94612558565b910191909161257e565b906125bf9161255e565b90565b906125e26125db926125d26101e2565b938480926125b5565b03836111cc565b565b6125ed906125c2565b90565b600161260961260f9261260161253d565b5060066102c0565b016125e4565b90565b6126239061261e61351a565b61262d565b61262b613572565b565b61264b61264661263f60058490611031565b3390610bb9565b61034b565b908161265f6126595f611162565b916101f0565b146127655761268b6126705f611162565b61268661267f60058590611031565b3390610bb9565b611312565b806126a66126a061269b5f61114f565b6103bc565b916103bc565b145f1461274c576126da5f8033856126bc6101e2565b90816126c781611912565b03925af16126d361195d565b5015610770565b612730575b9033909161272b6127196127137f8188e2b4d95f73db30690b4103c71159349bb897df928902c6330ef99e45fef3936106fd565b936106fd565b936127226101e2565b91829182610641565b0390a3565b5f6312171d8360e31b81528061274860048201610250565b0390fd5b6127606127588261118a565b33849161362f565b6126df565b5f639121b84f60e01b81528061277d60048201610250565b0390fd5b61278a90612612565b565b5f90565b61279c6127a191610307565b610723565b90565b6127ae9054612790565b90565b6127b961278c565b506127c460016127a4565b90565b6127cf6135e1565b6127d76127d9565b565b6127ea6127e55f61114f565b6137f2565b565b6127f46127c7565b565b6127fe613808565b612806613076565b612818612812836103bc565b916103bc565b0361282857612826906137f2565b565b612843905f91829163118cdaa760e01b835260048301610b3c565b0390fd5b969594939291903361286a61286461285f60026102fa565b6103bc565b916103bc565b0361287a5761287897612896565b565b5f6376f04f9560e11b81528061289260048201610250565b0390fd5b906128ae979695949392916128a961351a565b61291f565b6128b6613572565b565b60016128c491016101f0565b90565b634e487b7160e01b5f52603260045260245ffd5b91908110156128eb576020020190565b6128c7565b356128fa816101f3565b90565b919081101561290d576020020190565b6128c7565b3561291c816104c1565b90565b61293461293991989396979594986007610870565b611aff565b90612946600183016108a0565b6129596129536001610950565b91610950565b141580612bd1575b80612baa575b612b8e578061297f6129796002610950565b91610950565b141580612b72575b80612b56575b612b3a576129c26129bd6129c8936129aa600394600183016113b8565b6129b75f6006920161034b565b906102c0565b61115b565b016102fa565b93816129dc6129d65f611162565b916101f0565b11612ab0575b50506129ed5f611162565b5b80612a0b612a05612a00898690611e78565b6101f0565b916101f0565b1015612aa857612a4690612a29612a24878684916128db565b6128f0565b612a3b612a355f611162565b916101f0565b11612a4b575b6128b8565b6129ee565b612aa3612a62612a5d888785916128db565b6128f0565b612a9d612a8e612a7460058a90611031565b612a88612a838d8a89916128fd565b612912565b90610bb9565b91612a988361034b565b611b1e565b90611312565b612a41565b505050505050565b80612acb612ac5612ac05f61114f565b6103bc565b916103bc565b14155f14612b0c57612afe612aef612b049392612aea60058990611031565b610bb9565b91612af98361034b565b611b1e565b90611312565b5b5f806129e2565b50612b3590612b2f612b2060048790610bb9565b91612b2a8361034b565b611b1e565b90611312565b612b05565b5f631682d79f60e11b815280612b5260048201610250565b0390fd5b5080612b6b612b656004610950565b91610950565b141561298d565b5080612b87612b816003610950565b91610950565b1415612987565b5f63486d8ba360e11b815280612ba660048201610250565b0390fd5b50612bb7600183016108a0565b612bca612bc46004610950565b91610950565b1415612967565b50612bde600183016108a0565b612bf0612bea5f610950565b91610950565b1415612961565b90612c0797969594939291612847565b565b612c116135e1565b612c19612c1b565b565b612c23613875565b565b612c2d612c09565b565b5f90565b612c3b612c2f565b50612c455f6102fa565b90565b90565b9091612c579083611e78565b9167ffffffffffffffff8311612cba57612c85612c7f600192612c7a8686612091565b612c48565b92611fc5565b9204915f5b838110612c975750505050565b6001906020612cad612ca886612912565b61135a565b9401938184015501612c8a565b6111b8565b90612cca9291612c4b565b565b919033612cf6612cf0612ceb5f612ce5600689906102c0565b016102fa565b6103bc565b916103bc565b03612dac57612d06818390611e78565b612d19612d13600a611e7f565b916101f0565b11612d9057612d4e91612d2b846138b7565b612d458282906001612d3f600689906102c0565b01612cbf565b839190916136bb565b612d787fa1a2ea2ad08540ac240975854a8c643f4cde192b4d17c34e43715925def1a03a916102a4565b90612d816101e2565b80612d8b81610250565b0390a2565b5f630ea8f78b60e31b815280612da860048201610250565b0390fd5b5f63d099646b60e01b815280612dc460048201610250565b0390fd5b612dd990612dd46135e1565b612ddb565b565b80612df6612df0612deb5f61114f565b6103bc565b916103bc565b14612e4857612e0681600261135d565b612e307f785d41793514b3ebf4040425a4c015cd5ec08f504609b712fdd80d01b68debc6916106fd565b90612e396101e2565b80612e4381610250565b0390a2565b5f6378c8b5df60e01b815280612e6060048201610250565b0390fd5b612e6d90612dc8565b565b612e7b612e80916102d6565b610723565b90565b612e8d9054612e6f565b90565b612eb591612eab612eb092612ea361278c565b5060086106bf565b610709565b612e83565b90565b612ec990612ec461351a565b612ed3565b612ed1613572565b565b612ee490612edf6134c4565b612ee6565b565b612efa612ef560078390610870565b611aff565b90612f07600183016108a0565b612f19612f135f610950565b91610950565b0361304f5733612f3c612f36612f31600186016102fa565b6103bc565b916103bc565b0361303357612f4f6002600184016113b8565b612fe46001612f72612f6d6006612f675f880161034b565b906102c0565b61115b565b92612fdd612f826003870161034b565b94612f98612f8f5f611162565b60038901611312565b612fd7612fc8612fb78893612fb16003600592016102fa565b90611031565b612fc2878b016102fa565b90610bb9565b91612fd28361034b565b611b1e565b90611312565b93016102fa565b909161302e61301c6130167f0d1bcb6d0d8bd3f22c52ec30e490a7559bd1f2fbe6cbedfc5749dfbf0c8bd2ea936102a4565b936106fd565b936130256101e2565b91829182610641565b0390a3565b5f633068340360e11b81528061304b60048201610250565b0390fd5b5f63644322bf60e11b81528061306760048201610250565b0390fd5b61307490612eb8565b565b61307e612c2f565b5061308960016102fa565b90565b61309d906130986135e1565b61309f565b565b6130aa81600161135d565b6130b2612c33565b906130e66130e07f38d16b8cac22d99fc7c124b9cd0de2d3fa1faef420bfe791d8c362d765e22700936106fd565b916106fd565b916130ef6101e2565b806130f981610250565b0390a3565b6131079061308c565b565b61311a906131156134c4565b61311c565b565b61312d9061312861351a565b613137565b613135613572565b565b61314b61314660078390610870565b611aff565b613157600182016108a0565b6131696131635f610950565b91610950565b0361349d573361318c613186613181600185016102fa565b6103bc565b916103bc565b14613481576131af6131aa60066131a45f850161034b565b906102c0565b61115b565b6131bb600382016102fa565b6131d56131cf6131ca5f61114f565b6103bc565b916103bc565b145f146132915750346131fb6131f56131f06003850161034b565b6101f0565b916101f0565b0361327557613229906132113460048301611312565b5b61321f336002830161135d565b60018091016113b8565b3361325d6132577f50d6e5d288766a7340b6110b6738cac822c48c128a47399df2fad303041f8d50936102a4565b916106fd565b916132666101e2565b8061327081610250565b0390a3565b5f634581e82760e01b81528061328d60048201610250565b0390fd5b346132a461329e5f611162565b916101f0565b03613465578060206132cb6132c66132c160036132fd96016102fa565b61118a565b611196565b6370a08231906132f26132dd306111a2565b926132e66101e2565b968794859384936111f5565b835260048301610b3c565b03915afa9182156134605761336561336061335b6003613397966020955f91613433575b50956133556133396133348484016102fa565b61118a565b8a3361334f86613348306111a2565b930161034b565b92613596565b016102fa565b61118a565b611196565b6370a082319061338c613377306111a2565b926133806101e2565b968794859384936111f5565b835260048301610b3c565b03915afa90811561342e576133b4925f926133fe575b509061124c565b90816133c86133c25f611162565b916101f0565b146133e2576133dd6132299260048301611312565b613212565b5f634581e82760e01b8152806133fa60048201610250565b0390fd5b61342091925060203d8111613427575b61341881836111cc565b81019061120a565b905f6133ad565b503d61340e565b611228565b6134539150863d8111613459575b61344b81836111cc565b81019061120a565b5f613321565b503d613441565b611228565b5f63c788458560e01b81528061347d60048201610250565b0390fd5b5f63cc0cc3ef60e01b81528061349960048201610250565b0390fd5b5f63644322bf60e11b8152806134b560048201610250565b0390fd5b6134c290613109565b565b6134cc6127b1565b6134d257565b5f63d93c066560e01b8152806134ea60048201610250565b0390fd5b90565b61350561350061350a926134ee565b6102a1565b6101f0565b90565b61351760026134f1565b90565b613522613940565b61354461352d61350d565b5f61353e6135396139bc565b6139d0565b01611312565b565b90565b61355d61355861356292613546565b6102a1565b6101f0565b90565b61356f6001613549565b90565b61359461357d613565565b5f61358e6135896139bc565b6139d0565b01611312565b565b92906135b3926135ad9285929190916001936139d3565b15610770565b6135ba5750565b6135c66135dd91611196565b5f918291635274afe760e01b835260048301610b3c565b0390fd5b6135e9612c33565b6136026135fc6135f7613808565b6103bc565b916103bc565b0361360957565b61362b613614613808565b5f91829163118cdaa760e01b835260048301610b3c565b0390fd5b9161364891613642918491600192613a4c565b15610770565b61364f5750565b61365b61367291611196565b5f918291635274afe760e01b835260048301610b3c565b0390fd5b9061368260ff916112f4565b9181191691161790565b61369590610770565b90565b90565b906136b06136ab6136b79261368c565b613698565b8254613676565b9055565b92916136c65f611162565b5b806136e46136de6136d9868690611e78565b6101f0565b916101f0565b101561372b5761372690613721600161371c61370260088a906106bf565b613716613711898988916128fd565b612912565b90610709565b61369b565b6128b8565b6136c7565b5050509050565b61373a613ab6565b613742613764565b565b906137596137546137609261368c565b613698565b8254611390565b9055565b61376f5f6001613744565b613777613808565b6137ad7f5db9ee0a495bf2e6ff9c91a7834c1ba4fdd244a5e8aa4e537bd38aeae4b073aa916137a46101e2565b91829182610b3c565b0390a1565b6137ba613732565b565b91906137d26137cd6137da936106fd565b61135a565b9083546120bf565b9055565b6137f0916137ea612c2f565b916137bc565b565b613806906138015f60016137de565b613ae9565b565b613810612c2f565b503390565b61381d6134c4565b613825613827565b565b613832600180613744565b61383a613808565b6138707f62e78cea01bee320cd4e420270b5ea74000d11b0c9f74754ebdbfc544b05a258916138676101e2565b91829182610b3c565b0390a1565b61387d613815565b565b90565b5490565b5f5260205f2090565b61389881613882565b8210156138b2576138aa600191613886565b910201905f90565b6128c7565b906138cf60016138c9600685906102c0565b0161387f565b6138d85f611162565b5b806138f46138ee6138e985613882565b6101f0565b916101f0565b101561393a57613935906139305f61392b613911600889906106bf565b61392561391f88879061388f565b90610b1f565b90610709565b61369b565b6128b8565b6138d9565b50509050565b613948613b48565b61394e57565b5f633ee5aeb560e01b81528061396660048201610250565b0390fd5b5f90565b90565b90565b61398861398361398d9261396e565b6112f4565b613971565b90565b6139b97f9b779b17422d0df92223018b32b4d1fa46e071723d6817e2486d003becc55f00613974565b90565b6139c461396a565b506139cd613990565b90565b90565b919493949290926139e261278c565b506323b872dd60e01b93604051945f525f1960601c166004525f1960601c1660245260445260205f60648180855af19360015f5114851615613a2a575b50506040525f606052565b8492941516613a43575f903b113d151616915f80613a1f565b833d5f823e3d90fd5b9091939293613a5961278c565b5063a9059cbb60e01b92604051935f525f1960601c1660045260245260205f60448180855af19360015f5114851615613a94575b5050604052565b8492941516613aad575f903b113d151616915f80613a8d565b833d5f823e3d90fd5b613ac7613ac16127b1565b15610770565b613acd57565b5f638dfc202b60e01b815280613ae560048201610250565b0390fd5b613af25f6102fa565b613afc825f61135d565b90613b30613b2a7f8be0079c531659141344cd1fd0a4f28419497f9722a3daafe3b4186f6b6457e0936106fd565b916106fd565b91613b396101e2565b80613b4381610250565b0390a3565b613b5061278c565b50613b6b5f613b65613b606139bc565b6139d0565b0161034b565b613b84613b7e613b7961350d565b6101f0565b916101f0565b149056fea26469706673582212208273cf89fcb027620c1fa9da2af71114ce69d6babba4eb7bf2889c26270e4ebb64736f6c63430008210033","linkReferences":{}},"methodIdentifiers":{"acceptOwnership()":"79ba5097","cancelMatch(uint256)":"d02c8cdf","createMatch(uint256,uint256,uint256)":"099a3548","expireMatch(uint256)":"16e3321c","feeBalances(address)":"53afc025","gameVerifiers(uint256,address)":"22acadfe","games(uint256)":"117a5b90","getGameVerifiers(uint256)":"4db749c9","isVerifier(uint256,address)":"a3dc85d8","joinMatch(uint256)":"feb8c438","matches(uint256)":"4768d4ef","nextGameId()":"b135bbb0","owner()":"8da5cb5b","pause()":"8456cb59","paused()":"5c975abb","pendingOwner()":"e30c3978","pendingWithdrawals(address,address)":"e831be58","registerGame(uint8,address[],uint256,address,address)":"1c49205a","renounceOwnership()":"715018a6","setMatchTimeout(uint256,uint256)":"2dee6e0a","setSettlement(address)":"8f4e6f37","settleMatch(uint256,uint8,address,address[],uint256[],uint256)":"80f36476","settlement()":"51160630","transferOwnership(address)":"f2fde38b","unpause()":"3f4ba83a","updateGameVerifiers(uint256,address[])":"8e9917b8","withdraw(address)":"51cff8d9","withdrawFees(address)":"164e68de"},"id":42}