{"abi":[{"type":"constructor","inputs":[],"stateMutability":"nonpayable"},{"type":"function","name":"acceptOwnership","inputs":[],"outputs":[],"stateMutability":"nonpayable"},{"type":"function","name":"cancelMatch","inputs":[{"name":"matchId","type":"uint256","internalType":"uint256"}],"outputs":[],"stateMutability":"nonpayable"},{"type":"function","name":"createMatch","inputs":[{"name":"gameId","type":"uint256","internalType":"uint256"},{"name":"matchId","type":"uint256","internalType":"uint256"},{"name":"stakeAmount","type":"uint256","internalType":"uint256"}],"outputs":[],"stateMutability":"payable"},{"type":"function","name":"expireMatch","inputs":[{"name":"matchId","type":"uint256","internalType":"uint256"}],"outputs":[],"stateMutability":"nonpayable"},{"type":"function","name":"feeBalances","inputs":[{"name":"","type":"address","internalType":"address"}],"outputs":[{"name":"","type":"uint256","internalType":"uint256"}],"stateMutability":"view"},{"type":"function","name":"gameVerifiers","inputs":[{"name":"","type":"uint256","internalType":"uint256"},{"name":"","type":"address","internalType":"address"}],"outputs":[{"name":"","type":"bool","internalType":"bool"}],"stateMutability":"view"},{"type":"function","name":"games","inputs":[{"name":"","type":"uint256","internalType":"uint256"}],"outputs":[{"name":"admin","type":"address","internalType":"address"},{"name":"mode","type":"uint8","internalType":"enum AMPTypes.SettlementMode"},{"name":"minStake","type":"uint256","internalType":"uint256"},{"name":"stakeToken","type":"address","internalType":"address"},{"name":"arbiter","type":"address","internalType":"address"},{"name":"matchTimeout","type":"uint256","internalType":"uint256"}],"stateMutability":"view"},{"type":"function","name":"getGameVerifiers","inputs":[{"name":"gameId","type":"uint256","internalType":"uint256"}],"outputs":[{"name":"","type":"address[]","internalType":"address[]"}],"stateMutability":"view"},{"type":"function","name":"isVerifier","inputs":[{"name":"gameId","type":"uint256","internalType":"uint256"},{"name":"addr","type":"address","internalType":"address"}],"outputs":[{"name":"","type":"bool","internalType":"bool"}],"stateMutability":"view"},{"type":"function","name":"joinMatch","inputs":[{"name":"matchId","type":"uint256","internalType":"uint256"}],"outputs":[],"stateMutability":"payable"},{"type":"function","name":"matches","inputs":[{"name":"","type":"uint256","internalType":"uint256"}],"outputs":[{"name":"gameId","type":"uint256","internalType":"uint256"},{"name":"playerA","type":"address","internalType":"address"},{"name":"state","type":"uint8","internalType":"enum AMPTypes.MatchState"},{"name":"playerB","type":"address","internalType":"address"},{"name":"createdAt","type":"uint64","internalType":"uint64"},{"name":"stakeAmount","type":"uint256","internalType":"uint256"}],"stateMutability":"view"},{"type":"function","name":"nextGameId","inputs":[],"outputs":[{"name":"","type":"uint256","internalType":"uint256"}],"stateMutability":"view"},{"type":"function","name":"owner","inputs":[],"outputs":[{"name":"","type":"address","internalType":"address"}],"stateMutability":"view"},{"type":"function","name":"pause","inputs":[],"outputs":[],"stateMutability":"nonpayable"},{"type":"function","name":"paused","inputs":[],"outputs":[{"name":"","type":"bool","internalType":"bool"}],"stateMutability":"view"},{"type":"function","name":"pendingOwner","inputs":[],"outputs":[{"name":"","type":"address","internalType":"address"}],"stateMutability":"view"},{"type":"function","name":"pendingWithdrawals","inputs":[{"name":"","type":"address","internalType":"address"},{"name":"","type":"address","internalType":"address"}],"outputs":[{"name":"","type":"uint256","internalType":"uint256"}],"stateMutability":"view"},{"type":"function","name":"registerGame","inputs":[{"name":"mode","type":"uint8","internalType":"enum AMPTypes.SettlementMode"},{"name":"verifiers","type":"address[]","internalType":"address[]"},{"name":"minStake","type":"uint256","internalType":"uint256"},{"name":"stakeToken","type":"address","internalType":"address"},{"name":"arbiter","type":"address","internalType":"address"}],"outputs":[{"name":"gameId","type":"uint256","internalType":"uint256"}],"stateMutability":"nonpayable"},{"type":"function","name":"renounceOwnership","inputs":[],"outputs":[],"stateMutability":"nonpayable"},{"type":"function","name":"setMatchTimeout","inputs":[{"name":"gameId","type":"uint256","internalType":"uint256"},{"name":"timeoutSeconds","type":"uint256","internalType":"uint256"}],"outputs":[],"stateMutability":"nonpayable"},{"type":"function","name":"setSettlement","inputs":[{"name":"settlementAddress","type":"address","internalType":"address"}],"outputs":[],"stateMutability":"nonpayable"},{"type":"function","name":"settleMatch","inputs":[{"name":"matchId","type":"uint256","internalType":"uint256"},{"name":"newState","type":"uint8","internalType":"enum AMPTypes.MatchState"},{"name":"feeRecipient","type":"address","internalType":"address"},{"name":"recipients","type":"address[]","internalType":"address[]"},{"name":"amounts","type":"uint256[]","internalType":"uint256[]"},{"name":"protocolFee","type":"uint256","internalType":"uint256"}],"outputs":[],"stateMutability":"nonpayable"},{"type":"function","name":"settlement","inputs":[],"outputs":[{"name":"","type":"address","internalType":"address"}],"stateMutability":"view"},{"type":"function","name":"transferOwnership","inputs":[{"name":"newOwner","type":"address","internalType":"address"}],"outputs":[],"stateMutability":"nonpayable"},{"type":"function","name":"unpause","inputs":[],"outputs":[],"stateMutability":"nonpayable"},{"type":"function","name":"updateGameVerifiers","inputs":[{"name":"gameId","type":"uint256","internalType":"uint256"},{"name":"verifiers","type":"address[]","internalType":"address[]"}],"outputs":[],"stateMutability":"nonpayable"},{"type":"function","name":"withdraw","inputs":[{"name":"token","type":"address","internalType":"address"}],"outputs":[],"stateMutability":"nonpayable"},{"type":"function","name":"withdrawFees","inputs":[{"name":"token","type":"address","internalType":"address"}],"outputs":[],"stateMutability":"nonpayable"},{"type":"event","name":"FeesWithdrawn","inputs":[{"name":"token","type":"address","indexed":true,"internalType":"address"},{"name":"amount","type":"uint256","indexed":false,"internalType":"uint256"},{"name":"wallet","type":"address","indexed":true,"internalType":"address"}],"anonymous":false},{"type":"event","name":"GameRegistered","inputs":[{"name":"gameId","type":"uint256","indexed":true,"internalType":"uint256"},{"name":"admin","type":"address","indexed":true,"internalType":"address"},{"name":"mode","type":"uint8","indexed":false,"internalType":"enum AMPTypes.SettlementMode"}],"anonymous":false},{"type":"event","name":"GameVerifiersUpdated","inputs":[{"name":"gameId","type":"uint256","indexed":true,"internalType":"uint256"}],"anonymous":false},{"type":"event","name":"MatchCancelled","inputs":[{"name":"matchId","type":"uint256","indexed":true,"internalType":"uint256"},{"name":"playerA","type":"address","indexed":true,"internalType":"address"},{"name":"refundAmount","type":"uint256","indexed":false,"internalType":"uint256"}],"anonymous":false},{"type":"event","name":"MatchCreated","inputs":[{"name":"matchId","type":"uint256","indexed":true,"internalType":"uint256"},{"name":"gameId","type":"uint256","indexed":true,"internalType":"uint256"},{"name":"playerA","type":"address","indexed":true,"internalType":"address"},{"name":"stakeAmount","type":"uint256","indexed":false,"internalType":"uint256"}],"anonymous":false},{"type":"event","name":"MatchExpired","inputs":[{"name":"matchId","type":"uint256","indexed":true,"internalType":"uint256"}],"anonymous":false},{"type":"event","name":"MatchJoined","inputs":[{"name":"matchId","type":"uint256","indexed":true,"internalType":"uint256"},{"name":"playerB","type":"address","indexed":true,"internalType":"address"}],"anonymous":false},{"type":"event","name":"OwnershipTransferStarted","inputs":[{"name":"previousOwner","type":"address","indexed":true,"internalType":"address"},{"name":"newOwner","type":"address","indexed":true,"internalType":"address"}],"anonymous":false},{"type":"event","name":"OwnershipTransferred","inputs":[{"name":"previousOwner","type":"address","indexed":true,"internalType":"address"},{"name":"newOwner","type":"address","indexed":true,"internalType":"address"}],"anonymous":false},{"type":"event","name":"Paused","inputs":[{"name":"account","type":"address","indexed":false,"internalType":"address"}],"anonymous":false},{"type":"event","name":"SettlementUpdated","inputs":[{"name":"settlementAddress","type":"address","indexed":true,"internalType":"address"}],"anonymous":false},{"type":"event","name":"Unpaused","inputs":[{"name":"account","type":"address","indexed":false,"internalType":"address"}],"anonymous":false},{"type":"event","name":"WithdrawalClaimed","inputs":[{"name":"token","type":"address","indexed":true,"internalType":"address"},{"name":"account","type":"address","indexed":true,"internalType":"address"},{"name":"amount","type":"uint256","indexed":false,"internalType":"uint256"}],"anonymous":false},{"type":"error","name":"CannotJoinOwnMatch","inputs":[]},{"type":"error","name":"DisputeTimeoutNotReached","inputs":[]},{"type":"error","name":"EnforcedPause","inputs":[]},{"type":"error","name":"ExpectedPause","inputs":[]},{"type":"error","name":"InvalidNewState","inputs":[]},{"type":"error","name":"InvalidSettlementAddress","inputs":[]},{"type":"error","name":"MatchAlreadyExists","inputs":[]},{"type":"error","name":"MatchNotExpirable","inputs":[]},{"type":"error","name":"MatchNotOpen","inputs":[]},{"type":"error","name":"MatchNotSettlable","inputs":[]},{"type":"error","name":"NativeTokenSentForERC20","inputs":[]},{"type":"error","name":"NoFeesToWithdraw","inputs":[]},{"type":"error","name":"NoPendingWithdrawal","inputs":[]},{"type":"error","name":"NoReentrancy","inputs":[]},{"type":"error","name":"NotExpiredYet","inputs":[]},{"type":"error","name":"NotGameAdmin","inputs":[]},{"type":"error","name":"NotPlayerA","inputs":[]},{"type":"error","name":"NotSettlement","inputs":[]},{"type":"error","name":"OwnableInvalidOwner","inputs":[{"name":"owner","type":"address","internalType":"address"}]},{"type":"error","name":"OwnableUnauthorizedAccount","inputs":[{"name":"account","type":"address","internalType":"address"}]},{"type":"error","name":"RTModeRequiresArbiter","inputs":[]},{"type":"error","name":"SafeERC20FailedOperation","inputs":[{"name":"token","type":"address","internalType":"address"}]},{"type":"error","name":"StakeMismatch","inputs":[]},{"type":"error","name":"StakeTooLow","inputs":[]},{"type":"error","name":"TimeoutTooLong","inputs":[]},{"type":"error","name":"TimeoutTooShort","inputs":[]},{"type":"error","name":"TooManyVerifiers","inputs":[]},{"type":"error","name":"TransferFailed","inputs":[]}],"bytecode":{"object":"0x60806040523461002757610011610036565b61001961002c565b613b2661029b8239613b2690f35b610032565b60405190565b5f80fd5b61003f33610041565b565b61004a9061004c565b565b610055906100be565b565b90565b60018060a01b031690565b90565b61007c61007761008192610057565b610065565b61005a565b90565b61008d90610068565b90565b6100999061005a565b90565b6100a590610090565b9052565b91906100bc905f6020850194019061009c565b565b806100d96100d36100ce5f610084565b610090565b91610090565b146100e9576100e7906101af565b565b61010c6100f55f610084565b5f918291631e4fbdf760e01b8352600483016100a9565b0390fd5b1b90565b9190600861013491029161012e60018060a01b0384610110565b92610110565b9181191691161790565b61015261014d6101579261005a565b610065565b61005a565b90565b6101639061013e565b90565b61016f9061015a565b90565b90565b919061018b61018661019393610166565b610172565b908354610114565b9055565b5f90565b6101ad916101a7610197565b91610175565b565b6101c3906101be5f600161019b565b61023b565b565b5f1c90565b60018060a01b031690565b6101e16101e6916101c5565b6101ca565b90565b6101f390546101d5565b90565b5f1b90565b9061020c60018060a01b03916101f6565b9181191691161790565b9061022b61022661023292610166565b610172565b82546101fb565b9055565b5f0190565b6102445f6101e9565b61024e825f610216565b9061028261027c7f8be0079c531659141344cd1fd0a4f28419497f9722a3daafe3b4186f6b6457e093610166565b91610166565b9161028b61002c565b8061029581610236565b0390a356fe60806040526004361015610013575b6110e1565b61001d5f356101dc565b8063099a3548146101d7578063117a5b90146101d2578063164e68de146101cd57806316e3321c146101c85780631c49205a146101c357806322acadfe146101be5780632dee6e0a146101b95780633f4ba83a146101b45780634768d4ef146101af5780634db749c9146101aa57806351160630146101a557806351cff8d9146101a057806353afc0251461019b5780635c975abb14610196578063715018a61461019157806379ba50971461018c57806380f36476146101875780638456cb59146101825780638da5cb5b1461017d5780638e9917b8146101785780638f4e6f3714610173578063a3dc85d81461016e578063b135bbb014610169578063d02c8cdf14610164578063e30c39781461015f578063e831be581461015a578063f2fde38b146101555763feb8c4380361000e576110b8565b611085565b61104f565b610fb6565b610f83565b610f4e565b610f09565b610ed6565b610ea2565b610e27565b610df4565b610db7565b610c92565b610c5f565b610c2a565b610bf5565b610b6d565b610b38565b610ab9565b6109de565b61083d565b6107fa565b610797565b610656565b610535565b610502565b610485565b610255565b60e01c90565b60405190565b5f80fd5b5f80fd5b90565b6101fc816101f0565b0361020357565b5f80fd5b90503590610214826101f3565b565b909160608284031261024b57610248610231845f8501610207565b9361023f8160208601610207565b93604001610207565b90565b6101e8565b5f0190565b610269610263366004610216565b916118fd565b6102716101e2565b8061027b81610250565b0390f35b5f80fd5b9060208282031261029c57610299915f01610207565b90565b6101e8565b90565b6102b86102b36102bd926101f0565b6102a1565b6101f0565b90565b906102ca906102a4565b5f5260205260405f2090565b5f1c90565b60018060a01b031690565b6102f26102f7916102d6565b6102db565b90565b61030490546102e6565b90565b60a01c90565b60ff1690565b61031f61032491610307565b61030d565b90565b6103319054610313565b90565b90565b610343610348916102d6565b610334565b90565b6103559054610337565b90565b6103639060076102c0565b9061036f5f83016102fa565b9161037b5f8201610327565b916103886002830161034b565b91610395600382016102fa565b916103ae60056103a7600485016102fa565b930161034b565b90565b60018060a01b031690565b6103c5906103b1565b90565b6103d1906103bc565b9052565b634e487b7160e01b5f52602160045260245ffd5b600211156103f357565b6103d5565b90610402826103e9565b565b61040d906103f8565b90565b61041990610404565b9052565b610426906101f0565b9052565b919461047261047c9298979561046860a09661045e6104839a61045460c08a019e5f8b01906103c8565b6020890190610410565b604087019061041d565b60608501906103c8565b60808301906103c8565b019061041d565b565b346104bc576104b86104a061049b366004610283565b610358565b926104af9694969291926101e2565b9687968761042a565b0390f35b61027f565b6104ca816103bc565b036104d157565b5f80fd5b905035906104e2826104c1565b565b906020828203126104fd576104fa915f016104d5565b90565b6101e8565b346105305761051a6105153660046104e4565b611b44565b6105226101e2565b8061052c81610250565b0390f35b61027f565b346105635761054d610548366004610283565b611ee8565b6105556101e2565b8061055f81610250565b0390f35b61027f565b6002111561057257565b5f80fd5b9050359061058382610568565b565b5f80fd5b5f80fd5b5f80fd5b909182601f830112156105cb5781359167ffffffffffffffff83116105c65760200192602083028401116105c157565b61058d565b610589565b610585565b91909160a08184031261063c576105e9835f8301610576565b92602082013567ffffffffffffffff8111610637578161060a918401610591565b92909361063461061d8460408501610207565b9361062b81606086016104d5565b936080016104d5565b90565b6101ec565b6101e8565b9190610654905f6020850194019061041d565b565b3461068d5761068961067861066c3660046105d0565b94939093929192612486565b6106806101e2565b91829182610641565b0390f35b61027f565b91906040838203126106ba57806106ae6106b7925f8601610207565b936020016104d5565b90565b6101e8565b906106c9906102a4565b5f5260205260405f2090565b6106e96106e46106ee926103b1565b6102a1565b6103b1565b90565b6106fa906106d5565b90565b610706906106f1565b90565b90610713906106fd565b5f5260205260405f2090565b1c90565b60ff1690565b61073990600861073e930261071f565b610723565b90565b9061074c9154610729565b90565b61076861076d926107636009935f946106bf565b610709565b610741565b90565b151590565b61077e90610770565b9052565b9190610795905f60208501940190610775565b565b346107c8576107c46107b36107ad366004610692565b9061074f565b6107bb6101e2565b91829182610782565b0390f35b61027f565b91906040838203126107f557806107e96107f2925f8601610207565b93602001610207565b90565b6101e8565b346108295761081361080d3660046107cd565b906124dd565b61081b6101e2565b8061082581610250565b0390f35b61027f565b5f91031261083857565b6101e8565b3461086b5761084d36600461082e565b6108556125c8565b61085d6101e2565b8061086781610250565b0390f35b61027f565b9061087a906102a4565b5f5260205260405f2090565b60ff1690565b61089861089d91610307565b610886565b90565b6108aa905461088c565b90565b67ffffffffffffffff1690565b6108c66108cb91610307565b6108ad565b90565b6108d890546108ba565b90565b6108e6906008610870565b906108f25f830161034b565b916108ff600182016102fa565b9161090c600183016108a0565b91610919600282016102fa565b91610932600361092b600285016108ce565b930161034b565b90565b6005111561093f57565b6103d5565b9061094e82610935565b565b61095990610944565b90565b61096590610950565b9052565b67ffffffffffffffff1690565b61097f90610969565b9052565b91946109cb6109d5929897956109c160a0966109b76109dc9a6109ad60c08a019e5f8b019061041d565b60208901906103c8565b604087019061095c565b60608501906103c8565b6080830190610976565b019061041d565b565b34610a1557610a116109f96109f4366004610283565b6108db565b92610a089694969291926101e2565b96879687610983565b0390f35b61027f565b5190565b60209181520190565b60200190565b610a36906103bc565b9052565b90610a4781602093610a2d565b0190565b60200190565b90610a6e610a68610a6184610a1a565b8093610a1e565b92610a27565b905f5b818110610a7e5750505090565b909192610a97610a916001928651610a3a565b94610a4b565b9101919091610a71565b610ab69160208201915f818403910152610a51565b90565b34610ae957610ae5610ad4610acf366004610283565b612685565b610adc6101e2565b91829182610aa1565b0390f35b61027f565b610afe906008610b03930261071f565b6102db565b90565b90610b119154610aee565b90565b610b2060025f90610b06565b90565b9190610b36905f602085019401906103c8565b565b34610b6857610b4836600461082e565b610b64610b53610b14565b610b5b6101e2565b91829182610b23565b0390f35b61027f565b34610b9b57610b85610b803660046104e4565b612847565b610b8d6101e2565b80610b9781610250565b0390f35b61027f565b90610baa906106fd565b5f5260205260405f2090565b610bc6906008610bcb930261071f565b610334565b90565b90610bd99154610bb6565b90565b610bf290610bed6004915f92610ba0565b610bce565b90565b34610c2557610c21610c10610c0b3660046104e4565b610bdc565b610c186101e2565b91829182610641565b0390f35b61027f565b34610c5a57610c3a36600461082e565b610c56610c45612877565b610c4d6101e2565b91829182610782565b0390f35b61027f565b34610c8d57610c6f36600461082e565b610c776128b2565b610c7f6101e2565b80610c8981610250565b0390f35b61027f565b34610cc057610ca236600461082e565b610caa6128bc565b610cb26101e2565b80610cbc81610250565b0390f35b61027f565b60051115610ccf57565b5f80fd5b90503590610ce082610cc5565b565b909182601f83011215610d1c5781359167ffffffffffffffff8311610d17576020019260208302840111610d1257565b61058d565b610589565b610585565b60c081830312610db257610d37825f8301610207565b92610d458360208401610cd3565b92610d5381604085016104d5565b92606081013567ffffffffffffffff8111610dad5782610d74918301610591565b929093608083013567ffffffffffffffff8111610da857610d9a83610da5928601610ce2565b93909460a001610207565b90565b6101ec565b6101ec565b6101e8565b34610def57610dd9610dca366004610d21565b96959095949194939293612cee565b610de16101e2565b80610deb81610250565b0390f35b61027f565b34610e2257610e0436600461082e565b610e0c612d1c565b610e146101e2565b80610e1e81610250565b0390f35b61027f565b34610e5757610e3736600461082e565b610e53610e42612d2a565b610e4a6101e2565b91829182610b23565b0390f35b61027f565b919091604081840312610e9d57610e75835f8301610207565b92602082013567ffffffffffffffff8111610e9857610e949201610591565b9091565b6101ec565b6101e8565b34610ed157610ebb610eb5366004610e5c565b91612dc3565b610ec36101e2565b80610ecd81610250565b0390f35b61027f565b34610f0457610eee610ee93660046104e4565b612f5b565b610ef66101e2565b80610f0081610250565b0390f35b61027f565b34610f3a57610f36610f25610f1f366004610692565b90612f66565b610f2d6101e2565b91829182610782565b0390f35b61027f565b610f4b60035f90610bce565b90565b34610f7e57610f5e36600461082e565b610f7a610f69610f3f565b610f716101e2565b91829182610641565b0390f35b61027f565b34610fb157610f9b610f96366004610283565b613172565b610fa36101e2565b80610fad81610250565b0390f35b61027f565b34610fe657610fc636600461082e565b610fe2610fd161317d565b610fd96101e2565b91829182610b23565b0390f35b61027f565b91906040838203126110135780611007611010925f86016104d5565b936020016104d5565b90565b6101e8565b90611022906106fd565b5f5260205260405f2090565b61104761104c926110426005935f94611018565b610ba0565b610bce565b90565b346110805761107c61106b611065366004610feb565b9061102e565b6110736101e2565b91829182610641565b0390f35b61027f565b346110b35761109d6110983660046104e4565b613205565b6110a56101e2565b806110af81610250565b0390f35b61027f565b6110cb6110c6366004610283565b6135e1565b6110d36101e2565b806110dd81610250565b0390f35b5f80fd5b906110f892916110f36135ec565b611165565b565b61110661110b916102d6565b610723565b90565b61111890546110fa565b90565b5f1b90565b9061112c60ff9161111b565b9181191691161790565b61113f90610770565b90565b90565b9061115a61115561116192611136565b611142565b8254611120565b9055565b9190611171600661110e565b6111975761118a9261118560016006611145565b611565565b6111955f6006611145565b565b5f632c1ff44360e11b8152806111af60048201610250565b0390fd5b90565b6111ca6111c56111cf926111b3565b6102a1565b6103b1565b90565b6111db906111b6565b90565b90565b5f90565b6111f96111f46111fe926111b3565b6102a1565b6101f0565b90565b61120a906106d5565b90565b61121690611201565b90565b611222906106f1565b90565b61122e906106f1565b90565b601f801991011690565b634e487b7160e01b5f52604160045260245ffd5b9061125990611231565b810190811067ffffffffffffffff82111761127357604052565b61123b565b60e01b90565b9050519061128b826101f3565b565b906020828203126112a6576112a3915f0161127e565b90565b6101e8565b6112b36101e2565b3d5f823e3d90fd5b634e487b7160e01b5f52601160045260245ffd5b6112de6112e4919392936101f0565b926101f0565b82039182116112ef57565b6112bb565b61130861130361130d926101f0565b6102a1565b610969565b90565b9061132361131c6101e2565b928361124f565b565b61132f60c0611310565b90565b9061133c906101f0565b9052565b9061134a906103bc565b9052565b9061135890610944565b9052565b9061136690610969565b9052565b61137490516101f0565b90565b906113835f199161111b565b9181191691161790565b90565b906113a56113a06113ac926102a4565b61138d565b8254611377565b9055565b6113ba90516103bc565b90565b906113ce60018060a01b039161111b565b9181191691161790565b90565b906113f06113eb6113f7926106fd565b6113d8565b82546113bd565b9055565b6114059051610944565b90565b60a01b90565b9061141d60ff60a01b91611408565b9181191691161790565b61143090610944565b90565b90565b9061144b61144661145292611427565b611433565b825461140e565b9055565b6114609051610969565b90565b9061147967ffffffffffffffff60a01b91611408565b9181191691161790565b61149761149261149c92610969565b6102a1565b610969565b90565b90565b906114b76114b26114be92611483565b61149f565b8254611463565b9055565b9061155160a06003611557946114e55f82016114df5f880161136a565b90611390565b6114fe600182016114f8602088016113b0565b906113db565b61151760018201611511604088016113fb565b90611436565b6115306002820161152a606088016113b0565b906113db565b6115496002820161154360808801611456565b906114a2565b01920161136a565b90611390565b565b90611563916114c2565b565b9161157d600161157760088590610870565b016102fa565b61159761159161158c5f6111d2565b6103bc565b916103bc565b036118e1576115b06115ab600785906102c0565b6111de565b906115b96111e1565b506115c6600383016102fa565b6115e06115da6115d55f6111d2565b6103bc565b916103bc565b145f1461170157506116066116006115fb600234940161034b565b6101f0565b916101f0565b106116e55734905b61168b8361167a336116716116225f6111d2565b91611668889361165f5f611656611638426112f4565b9561164d611644611325565b9b5f8d01611332565b60208b01611340565b6040890161134e565b60608701611340565b6080850161135c565b60a08301611332565b61168660088490610870565b611559565b913391926116e06116ce6116c86116c27f76fa78785ce11e91f2820be98dac9263716886c4838d91ed61707a25429045cf946102a4565b946102a4565b946106fd565b946116d76101e2565b91829182610641565b0390a4565b5f631cc3b37b60e01b8152806116fd60048201610250565b0390fd5b8061171f6117196117146002860161034b565b6101f0565b916101f0565b106118c557346117376117315f6111e5565b916101f0565b036118a95761178f602061175d611758611753600387016102fa565b61120d565b611219565b6370a082319061178461176f30611225565b926117786101e2565b95869485938493611278565b835260048301610b23565b03915afa80156118a4576117e86117e3600361181f966117dd6117ed956020975f91611877575b50976117cb6117c68585016102fa565b61120d565b90336117d630611225565b9192613616565b016102fa565b61120d565b611219565b6370a08231906118146117ff30611225565b926118086101e2565b96879485938493611278565b835260048301610b23565b03915afa9081156118725761183c925f92611842575b50906112cf565b9061160e565b61186491925060203d811161186b575b61185c818361124f565b81019061128d565b905f611835565b503d611852565b6112ab565b6118979150883d811161189d575b61188f818361124f565b81019061128d565b5f6117b6565b503d611885565b6112ab565b5f63c788458560e01b8152806118c160048201610250565b0390fd5b5f631cc3b37b60e01b8152806118dd60048201610250565b0390fd5b5f63fc2bc70d60e01b8152806118f960048201610250565b0390fd5b9061190892916110e5565b565b61191b90611916613661565b61191d565b565b611927600661110e565b61194d576119409061193b60016006611145565b6119f1565b61194b5f6006611145565b565b5f632c1ff44360e11b81528061196560048201610250565b0390fd5b905090565b6119795f8092611969565b0190565b6119869061196e565b90565b67ffffffffffffffff81116119a7576119a3602091611231565b0190565b61123b565b906119be6119b983611989565b611310565b918252565b606090565b3d5f146119e3576119d83d6119ac565b903d5f602084013e5b565b6119eb6119c3565b906119e1565b611a05611a0060048390610ba0565b61034b565b9081611a19611a135f6111e5565b916101f0565b14611b2857611a3b611a2a5f6111e5565b611a3660048490610ba0565b611390565b80611a56611a50611a4b5f6111d2565b6103bc565b916103bc565b145f14611b0857611a915f80611a6a612d2a565b85611a736101e2565b9081611a7e8161197d565b03925af1611a8a6119c8565b5015610770565b611aec575b611a9e612d2a565b90611ae7611ad5611acf7f87044da2612407bc001bb0985725dcc651a0dc71eaabfd1d7e8617ca85a8c19c936106fd565b936106fd565b93611ade6101e2565b91829182610641565b0390a3565b5f6312171d8360e31b815280611b0460048201610250565b0390fd5b611b23611b148261120d565b611b1c612d2a565b84916136af565b611a96565b5f630d00db4d60e31b815280611b4060048201610250565b0390fd5b611b4d9061190a565b565b611b59600661110e565b611b7f57611b7290611b6d60016006611145565b611c33565b611b7d5f6006611145565b565b5f632c1ff44360e11b815280611b9760048201610250565b0390fd5b90565b611bb2611bad611bb792610969565b6102a1565b6101f0565b90565b611bc9611bcf919392936101f0565b926101f0565b8201809211611bda57565b6112bb565b90565b611bf6611bf1611bfb92611bdf565b6102a1565b6101f0565b90565b611c0d611c13919392936101f0565b926101f0565b91611c1f8382026101f0565b928184041490151715611c2e57565b6112bb565b611c47611c4260088390610870565b611b9b565b611c65611c606007611c5a5f850161034b565b906102c0565b6111de565b611c71600183016108a0565b611c84611c7e6004610944565b91610944565b145f14611e145742611cd9611cd3611cce611ca1600287016108ce565b611cc9611cc3611cb36005890161034b565b611cbd6003611be2565b90611bfe565b91611b9e565b611bba565b6101f0565b916101f0565b10611df8576003611cf8915b611cf28260018601611436565b016102fa565b611d046003830161034b565b91611d4283611d3c611d2d611d1b60058790611018565b611d27600187016102fa565b90610ba0565b91611d378361034b565b611bba565b90611390565b611d4e600282016102fa565b611d68611d62611d5d5f6111d2565b6103bc565b916103bc565b03611db3575b505050611d9b7f954bf9e0348a427a5d16cc7c185b53a3e2254827f764c505d7694d4191318136916102a4565b90611da46101e2565b80611dae81610250565b0390a2565b611ddb611dea91611dd56002611dce611df097966005611018565b92016102fa565b90610ba0565b91611de58361034b565b611bba565b90611390565b5f8080611d6e565b5f63d18c9cbf60e01b815280611e1060048201610250565b0390fd5b611e20600183016108a0565b611e32611e2c5f610944565b91610944565b141580611ec1575b611ea55742611e79611e73611e6e611e54600287016108ce565b611e69611e636005880161034b565b91611b9e565b611bba565b6101f0565b916101f0565b10611e89576003611cf891611ce5565b5f63a8058ea960e01b815280611ea160048201610250565b0390fd5b5f637b67d3b360e01b815280611ebd60048201610250565b0390fd5b50611ece600183016108a0565b611ee1611edb6001610944565b91610944565b1415611e3a565b611ef190611b4f565b565b90611f0a969594939291611f056135ec565b6122cb565b90565b5090565b90565b611f28611f23611f2d92611f11565b6102a1565b6101f0565b90565b611f39906101f0565b5f198114611f475760010190565b6112bb565b611f5660e0611310565b90565b90611f63906103f8565b9052565b67ffffffffffffffff8111611f7f5760208091020190565b61123b565b90929192611f99611f9482611f67565b611310565b9381855260208086019202830192818411611fd657915b838310611fbd5750505050565b60208091611fcb84866104d5565b815201920191611fb0565b61058d565b611fe6913691611f84565b90565b52565b90565b612003611ffe61200892611fec565b6102a1565b6101f0565b90565b61201590516103f8565b90565b612021906103f8565b90565b90565b9061203c61203761204392612018565b612024565b825461140e565b9055565b5190565b5490565b600190818003010490565b5f5260205f2090565b1b90565b9190600861208291029161207c5f1984612063565b92612063565b9181191691161790565b91906120a261209d6120aa936102a4565b61138d565b908354612067565b9055565b6120c0916120ba6111e1565b9161208c565b565b5f5b8281106120d057505050565b806120df5f60019385016120ae565b016120c4565b91908082106120f4575b505050565b61211e9261210d6121076121159361204f565b9361204f565b91829161205a565b019103906120c2565b5f80806120ef565b9068010000000000000000811161214f578161214461214d9361204b565b908281556120e5565b565b61123b565b9190600861217491029161216e60018060a01b0384612063565b92612063565b9181191691161790565b61218782610a1a565b9167ffffffffffffffff83116121ea576121b56121af6001926121aa8686612126565b610a27565b9261205a565b9204915f5b8381106121c75750505050565b60019060206121dd6121d8866113b0565b6113d8565b94019381840155016121ba565b61123b565b906121f99161217e565b565b906122a260c060056122a89461221e5f82016122185f88016113b0565b906113db565b6122365f82016122306020880161200b565b90612027565b61224f6001820161224960408801612047565b906121ef565b612268600282016122626060880161136a565b90611390565b6122816003820161227b608088016113b0565b906113db565b61229a6004820161229460a088016113b0565b906113db565b01920161136a565b90611390565b565b906122b4916121fb565b565b91906122c9905f60208501940190610410565b565b9695919396949094506122df848490611f0d565b6122f26122ec600a611f14565b916101f0565b1161246a578461230b61230560016103f8565b916103f8565b1461242e575b61231b600361034b565b61232481611f30565b61232f906003611390565b9633928692868693919293610e1095612346611f4c565b975f89019061235491611340565b602088019061236291611f59565b61236b91611fdb565b604086019061237991611fe9565b606085019061238791611332565b608084019061239591611340565b60a08301906123a391611340565b6123ac90611fef565b60c08201906123ba91611332565b6007866123c6916102c0565b906123d0916122aa565b84916123db926136f6565b82903390917f5e09e945b03039ef5badcb234e5c97407df03696c59f589e8fbb6f32950b3e259061240b906102a4565b91612415906106fd565b9261241e6101e2565b6124298192826122b6565b0390a3565b8161244961244361243e5f6111d2565b6103bc565b916103bc565b03612311575f63c12c281f60e01b81528061246660048201610250565b0390fd5b5f630ea8f78b60e31b81528061248260048201610250565b0390fd5b9061249c95949392916124976111e1565b611ef3565b90565b90565b6124b66124b16124bb9261249f565b6102a1565b6101f0565b90565b90565b6124d56124d06124da926124be565b6102a1565b6101f0565b90565b336125056124ff6124fa5f6124f4600787906102c0565b016102fa565b6103bc565b916103bc565b03612590578161251f61251961012c6124a2565b916101f0565b10612574578161253a61253462278d006124c1565b916101f0565b11612558576005612550612556939260076102c0565b01611390565b565b5f637c4c3f4760e11b81528061257060048201610250565b0390fd5b5f63e143262560e01b81528061258c60048201610250565b0390fd5b5f63d099646b60e01b8152806125a860048201610250565b0390fd5b6125b4613661565b6125bc6125be565b565b6125c66137ed565b565b6125d06125ac565b565b606090565b60209181520190565b6125ea90546102e6565b90565b60010190565b9061261061260a6126038461204b565b80936125d7565b9261205a565b905f5b8181106126205750505090565b90919261264061263a600192612635876125e0565b610a3a565b946125ed565b9101919091612613565b90612654916125f3565b90565b90612677612670926126676101e2565b9384809261264a565b038361124f565b565b61268290612657565b90565b600161269e6126a4926126966125d2565b5060076102c0565b01612679565b90565b6126b1600661110e565b6126d7576126ca906126c560016006611145565b6126f3565b6126d55f6006611145565b565b5f632c1ff44360e11b8152806126ef60048201610250565b0390fd5b61271161270c61270560058490611018565b3390610ba0565b61034b565b908161272561271f5f6111e5565b916101f0565b1461282b576127516127365f6111e5565b61274c61274560058590611018565b3390610ba0565b611390565b8061276c6127666127615f6111d2565b6103bc565b916103bc565b145f14612812576127a05f8033856127826101e2565b908161278d8161197d565b03925af16127996119c8565b5015610770565b6127f6575b903390916127f16127df6127d97f8188e2b4d95f73db30690b4103c71159349bb897df928902c6330ef99e45fef3936106fd565b936106fd565b936127e86101e2565b91829182610641565b0390a3565b5f6312171d8360e31b81528061280e60048201610250565b0390fd5b61282661281e8261120d565b3384916136af565b6127a5565b5f639121b84f60e01b81528061284360048201610250565b0390fd5b612850906126a7565b565b5f90565b61286261286791610307565b610723565b90565b6128749054612856565b90565b61287f612852565b5061288a600161286a565b90565b612895613661565b61289d61289f565b565b6128b06128ab5f6111d2565b61382d565b565b6128ba61288d565b565b6128c4613843565b6128cc61317d565b6128de6128d8836103bc565b916103bc565b036128ee576128ec9061382d565b565b612909905f91829163118cdaa760e01b835260048301610b23565b0390fd5b969594939291903361293061292a61292560026102fa565b6103bc565b916103bc565b036129405761293e9761295c565b565b5f6376f04f9560e11b81528061295860048201610250565b0390fd5b9695949392919061296d600661110e565b612993576129869761298160016006611145565b612a16565b6129915f6006611145565b565b5f632c1ff44360e11b8152806129ab60048201610250565b0390fd5b60016129bb91016101f0565b90565b634e487b7160e01b5f52603260045260245ffd5b91908110156129e2576020020190565b6129be565b356129f1816101f3565b90565b9190811015612a04576020020190565b6129be565b35612a13816104c1565b90565b612a2b612a3091989396979594986008610870565b611b9b565b90612a3d600183016108a0565b612a50612a4a6001610944565b91610944565b141580612cc8575b80612ca1575b612c855780612a76612a706002610944565b91610944565b141580612c69575b80612c4d575b612c3157612ab9612ab4612abf93612aa160039460018301611436565b612aae5f6007920161034b565b906102c0565b6111de565b016102fa565b9381612ad3612acd5f6111e5565b916101f0565b11612ba7575b5050612ae45f6111e5565b5b80612b02612afc612af7898690611f0d565b6101f0565b916101f0565b1015612b9f57612b3d90612b20612b1b878684916129d2565b6129e7565b612b32612b2c5f6111e5565b916101f0565b11612b42575b6129af565b612ae5565b612b9a612b59612b54888785916129d2565b6129e7565b612b94612b85612b6b60058a90611018565b612b7f612b7a8d8a89916129f4565b612a09565b90610ba0565b91612b8f8361034b565b611bba565b90611390565b612b38565b505050505050565b80612bc2612bbc612bb75f6111d2565b6103bc565b916103bc565b14155f14612c0357612bf5612be6612bfb9392612be160058990611018565b610ba0565b91612bf08361034b565b611bba565b90611390565b5b5f80612ad9565b50612c2c90612c26612c1760048790610ba0565b91612c218361034b565b611bba565b90611390565b612bfc565b5f631682d79f60e11b815280612c4960048201610250565b0390fd5b5080612c62612c5c6004610944565b91610944565b1415612a84565b5080612c7e612c786003610944565b91610944565b1415612a7e565b5f63486d8ba360e11b815280612c9d60048201610250565b0390fd5b50612cae600183016108a0565b612cc1612cbb6004610944565b91610944565b1415612a5e565b50612cd5600183016108a0565b612ce7612ce15f610944565b91610944565b1415612a58565b90612cfe9796959493929161290d565b565b612d08613661565b612d10612d12565b565b612d1a6138b0565b565b612d24612d00565b565b5f90565b612d32612d26565b50612d3c5f6102fa565b90565b90565b9091612d4e9083611f0d565b9167ffffffffffffffff8311612db157612d7c612d76600192612d718686612126565b612d3f565b9261205a565b9204915f5b838110612d8e5750505050565b6001906020612da4612d9f86612a09565b6113d8565b9401938184015501612d81565b61123b565b90612dc19291612d42565b565b919033612ded612de7612de25f612ddc600789906102c0565b016102fa565b6103bc565b916103bc565b03612ea357612dfd818390611f0d565b612e10612e0a600a611f14565b916101f0565b11612e8757612e4591612e22846138f2565b612e3c8282906001612e36600789906102c0565b01612db6565b839190916136f6565b612e6f7fa1a2ea2ad08540ac240975854a8c643f4cde192b4d17c34e43715925def1a03a916102a4565b90612e786101e2565b80612e8281610250565b0390a2565b5f630ea8f78b60e31b815280612e9f60048201610250565b0390fd5b5f63d099646b60e01b815280612ebb60048201610250565b0390fd5b612ed090612ecb613661565b612ed2565b565b80612eed612ee7612ee25f6111d2565b6103bc565b916103bc565b14612f3f57612efd8160026113db565b612f277f785d41793514b3ebf4040425a4c015cd5ec08f504609b712fdd80d01b68debc6916106fd565b90612f306101e2565b80612f3a81610250565b0390a2565b5f6378c8b5df60e01b815280612f5760048201610250565b0390fd5b612f6490612ebf565b565b612f8b91612f81612f8692612f79612852565b5060096106bf565b610709565b61110e565b90565b612f98600661110e565b612fbe57612fb190612fac60016006611145565b612fda565b612fbc5f6006611145565b565b5f632c1ff44360e11b815280612fd660048201610250565b0390fd5b612feb90612fe66135ec565b612fed565b565b613001612ffc60088390610870565b611b9b565b9061300e600183016108a0565b61302061301a5f610944565b91610944565b03613156573361304361303d613038600186016102fa565b6103bc565b916103bc565b0361313a57613056600260018401611436565b6130eb6001613079613074600761306e5f880161034b565b906102c0565b6111de565b926130e46130896003870161034b565b9461309f6130965f6111e5565b60038901611390565b6130de6130cf6130be88936130b86003600592016102fa565b90611018565b6130c9878b016102fa565b90610ba0565b916130d98361034b565b611bba565b90611390565b93016102fa565b909161313561312361311d7f0d1bcb6d0d8bd3f22c52ec30e490a7559bd1f2fbe6cbedfc5749dfbf0c8bd2ea936102a4565b936106fd565b9361312c6101e2565b91829182610641565b0390a3565b5f633068340360e11b81528061315260048201610250565b0390fd5b5f63644322bf60e11b81528061316e60048201610250565b0390fd5b61317b90612f8e565b565b613185612d26565b5061319060016102fa565b90565b6131a49061319f613661565b6131a6565b565b6131b18160016113db565b6131b9612d2a565b906131ed6131e77f38d16b8cac22d99fc7c124b9cd0de2d3fa1faef420bfe791d8c362d765e22700936106fd565b916106fd565b916131f66101e2565b8061320081610250565b0390a3565b61320e90613193565b565b6132219061321c6135ec565b613223565b565b61322d600661110e565b613253576132469061324160016006611145565b61326f565b6132515f6006611145565b565b5f632c1ff44360e11b81528061326b60048201610250565b0390fd5b61328361327e60088390610870565b611b9b565b61328f600182016108a0565b6132a161329b5f610944565b91610944565b036135c557336132c46132be6132b9600185016102fa565b6103bc565b916103bc565b146135a9576132e76132e260076132dc5f850161034b565b906102c0565b6111de565b6132f3600382016102fa565b61330d6133076133025f6111d2565b6103bc565b916103bc565b145f146133bc57503461333361332d6133286003850161034b565b6101f0565b916101f0565b036133a057613354905b61334a33600283016113db565b6001809101611436565b336133886133827f50d6e5d288766a7340b6110b6738cac822c48c128a47399df2fad303041f8d50936102a4565b916106fd565b916133916101e2565b8061339b81610250565b0390a3565b5f634581e82760e01b8152806133b860048201610250565b0390fd5b346133cf6133c95f6111e5565b916101f0565b0361358d578060206133f66133f16133ec600361342896016102fa565b61120d565b611219565b6370a082319061341d61340830611225565b926134116101e2565b96879485938493611278565b835260048301610b23565b03915afa9182156135885761349061348b61348660036134c2966020955f9161355b575b509561348061346461345f8484016102fa565b61120d565b8a3361347a8661347330611225565b930161034b565b92613616565b016102fa565b61120d565b611219565b6370a08231906134b76134a230611225565b926134ab6101e2565b96879485938493611278565b835260048301610b23565b03915afa908115613556576134df925f92613526575b50906112cf565b6134fc6134f66134f16003850161034b565b6101f0565b916101f0565b0361350a576133549061333d565b5f634581e82760e01b81528061352260048201610250565b0390fd5b61354891925060203d811161354f575b613540818361124f565b81019061128d565b905f6134d8565b503d613536565b6112ab565b61357b9150863d8111613581575b613573818361124f565b81019061128d565b5f61344c565b503d613569565b6112ab565b5f63c788458560e01b8152806135a560048201610250565b0390fd5b5f63cc0cc3ef60e01b8152806135c160048201610250565b0390fd5b5f63644322bf60e11b8152806135dd60048201610250565b0390fd5b6135ea90613210565b565b6135f4612877565b6135fa57565b5f63d93c066560e01b81528061361260048201610250565b0390fd5b92906136339261362d92859291909160019361397b565b15610770565b61363a5750565b61364661365d91611219565b5f918291635274afe760e01b835260048301610b23565b0390fd5b613669612d2a565b61368261367c613677613843565b6103bc565b916103bc565b0361368957565b6136ab613694613843565b5f91829163118cdaa760e01b835260048301610b23565b0390fd5b916136c8916136c29184916001926139f4565b15610770565b6136cf5750565b6136db6136f291611219565b5f918291635274afe760e01b835260048301610b23565b0390fd5b92916137015f6111e5565b5b8061371f613719613714868690611f0d565b6101f0565b916101f0565b1015613766576137619061375c600161375761373d60098a906106bf565b61375161374c898988916129f4565b612a09565b90610709565b611145565b6129af565b613702565b5050509050565b613775613a5e565b61377d61379f565b565b9061379461378f61379b92611136565b611142565b825461140e565b9055565b6137aa5f600161377f565b6137b2613843565b6137e87f5db9ee0a495bf2e6ff9c91a7834c1ba4fdd244a5e8aa4e537bd38aeae4b073aa916137df6101e2565b91829182610b23565b0390a1565b6137f561376d565b565b919061380d613808613815936106fd565b6113d8565b908354612154565b9055565b61382b91613825612d26565b916137f7565b565b6138419061383c5f6001613819565b613a91565b565b61384b612d26565b503390565b6138586135ec565b613860613862565b565b61386d60018061377f565b613875613843565b6138ab7f62e78cea01bee320cd4e420270b5ea74000d11b0c9f74754ebdbfc544b05a258916138a26101e2565b91829182610b23565b0390a1565b6138b8613850565b565b90565b5490565b5f5260205f2090565b6138d3816138bd565b8210156138ed576138e56001916138c1565b910201905f90565b6129be565b9061390a6001613904600785906102c0565b016138ba565b6139135f6111e5565b5b8061392f613929613924856138bd565b6101f0565b916101f0565b1015613975576139709061396b5f61396661394c600989906106bf565b61396061395a8887906138ca565b90610b06565b90610709565b611145565b6129af565b613914565b50509050565b9194939492909261398a612852565b506323b872dd60e01b93604051945f525f1960601c166004525f1960601c1660245260445260205f60648180855af19360015f51148516156139d2575b50506040525f606052565b84929415166139eb575f903b113d151616915f806139c7565b833d5f823e3d90fd5b9091939293613a01612852565b5063a9059cbb60e01b92604051935f525f1960601c1660045260245260205f60448180855af19360015f5114851615613a3c575b5050604052565b8492941516613a55575f903b113d151616915f80613a35565b833d5f823e3d90fd5b613a6f613a69612877565b15610770565b613a7557565b5f638dfc202b60e01b815280613a8d60048201610250565b0390fd5b613a9a5f6102fa565b613aa4825f6113db565b90613ad8613ad27f8be0079c531659141344cd1fd0a4f28419497f9722a3daafe3b4186f6b6457e0936106fd565b916106fd565b91613ae16101e2565b80613aeb81610250565b0390a356fea2646970667358221220eb714a5f965fca01f77b240c283407fdf59869c744a57f70d387d1a9f91f70ce64736f6c63430008210033","linkReferences":{}},"methodIdentifiers":{"acceptOwnership()":"79ba5097","cancelMatch(uint256)":"d02c8cdf","createMatch(uint256,uint256,uint256)":"099a3548","expireMatch(uint256)":"16e3321c","feeBalances(address)":"53afc025","gameVerifiers(uint256,address)":"22acadfe","games(uint256)":"117a5b90","getGameVerifiers(uint256)":"4db749c9","isVerifier(uint256,address)":"a3dc85d8","joinMatch(uint256)":"feb8c438","matches(uint256)":"4768d4ef","nextGameId()":"b135bbb0","owner()":"8da5cb5b","pause()":"8456cb59","paused()":"5c975abb","pendingOwner()":"e30c3978","pendingWithdrawals(address,address)":"e831be58","registerGame(uint8,address[],uint256,address,address)":"1c49205a","renounceOwnership()":"715018a6","setMatchTimeout(uint256,uint256)":"2dee6e0a","setSettlement(address)":"8f4e6f37","settleMatch(uint256,uint8,address,address[],uint256[],uint256)":"80f36476","settlement()":"51160630","transferOwnership(address)":"f2fde38b","unpause()":"3f4ba83a","updateGameVerifiers(uint256,address[])":"8e9917b8","withdraw(address)":"51cff8d9","withdrawFees(address)":"164e68de"},"id":39}