{"abi":[{"type":"constructor","inputs":[{"name":"_registry","type":"address","internalType":"address"}],"stateMutability":"nonpayable"},{"type":"function","name":"ASYNC_RESULT_TYPEHASH","inputs":[],"outputs":[{"name":"","type":"bytes32","internalType":"bytes32"}],"stateMutability":"view"},{"type":"function","name":"EIP712_DOMAIN_TYPEHASH","inputs":[],"outputs":[{"name":"","type":"bytes32","internalType":"bytes32"}],"stateMutability":"view"},{"type":"function","name":"MAX_PROTOCOL_FEE_BPS","inputs":[],"outputs":[{"name":"","type":"uint16","internalType":"uint16"}],"stateMutability":"view"},{"type":"function","name":"acceptOwnership","inputs":[],"outputs":[],"stateMutability":"nonpayable"},{"type":"function","name":"domainSeparator","inputs":[],"outputs":[{"name":"","type":"bytes32","internalType":"bytes32"}],"stateMutability":"view"},{"type":"function","name":"owner","inputs":[],"outputs":[{"name":"","type":"address","internalType":"address"}],"stateMutability":"view"},{"type":"function","name":"pause","inputs":[],"outputs":[],"stateMutability":"nonpayable"},{"type":"function","name":"paused","inputs":[],"outputs":[{"name":"","type":"bool","internalType":"bool"}],"stateMutability":"view"},{"type":"function","name":"pendingOwner","inputs":[],"outputs":[{"name":"","type":"address","internalType":"address"}],"stateMutability":"view"},{"type":"function","name":"protocolFeeBps","inputs":[],"outputs":[{"name":"","type":"uint16","internalType":"uint16"}],"stateMutability":"view"},{"type":"function","name":"protocolFeeRecipient","inputs":[],"outputs":[{"name":"","type":"address","internalType":"address"}],"stateMutability":"view"},{"type":"function","name":"registry","inputs":[],"outputs":[{"name":"","type":"address","internalType":"address"}],"stateMutability":"view"},{"type":"function","name":"renounceOwnership","inputs":[],"outputs":[],"stateMutability":"nonpayable"},{"type":"function","name":"resolveDispute","inputs":[{"name":"matchId","type":"uint256","internalType":"uint256"},{"name":"enforcedOutcome","type":"uint8","internalType":"enum AMPTypes.OutcomeCode"}],"outputs":[],"stateMutability":"nonpayable"},{"type":"function","name":"rtResults","inputs":[{"name":"","type":"uint256","internalType":"uint256"},{"name":"","type":"address","internalType":"address"}],"outputs":[{"name":"matchId","type":"uint256","internalType":"uint256"},{"name":"outcome","type":"uint8","internalType":"enum AMPTypes.OutcomeCode"},{"name":"transcriptHash","type":"bytes32","internalType":"bytes32"}],"stateMutability":"view"},{"type":"function","name":"settlements","inputs":[{"name":"","type":"uint256","internalType":"uint256"}],"outputs":[{"name":"matchId","type":"uint256","internalType":"uint256"},{"name":"outcome","type":"uint8","internalType":"enum AMPTypes.OutcomeCode"},{"name":"transcriptHash","type":"bytes32","internalType":"bytes32"},{"name":"settledAt","type":"uint256","internalType":"uint256"}],"stateMutability":"view"},{"type":"function","name":"submitAsyncResult","inputs":[{"name":"matchId","type":"uint256","internalType":"uint256"},{"name":"result","type":"tuple","internalType":"struct AMPTypes.AsyncResult","components":[{"name":"matchId","type":"uint256","internalType":"uint256"},{"name":"outcome","type":"uint8","internalType":"enum AMPTypes.OutcomeCode"},{"name":"transcriptHash","type":"bytes32","internalType":"bytes32"},{"name":"signature","type":"bytes","internalType":"bytes"}]}],"outputs":[],"stateMutability":"nonpayable"},{"type":"function","name":"submitRealTimeHashResult","inputs":[{"name":"matchId","type":"uint256","internalType":"uint256"},{"name":"result","type":"tuple","internalType":"struct AMPTypes.RealTimeHashResult","components":[{"name":"matchId","type":"uint256","internalType":"uint256"},{"name":"outcome","type":"uint8","internalType":"enum AMPTypes.OutcomeCode"},{"name":"transcriptHash","type":"bytes32","internalType":"bytes32"}]}],"outputs":[],"stateMutability":"nonpayable"},{"type":"function","name":"transferOwnership","inputs":[{"name":"newOwner","type":"address","internalType":"address"}],"outputs":[],"stateMutability":"nonpayable"},{"type":"function","name":"unpause","inputs":[],"outputs":[],"stateMutability":"nonpayable"},{"type":"function","name":"updateProtocolFeeBps","inputs":[{"name":"feeBps","type":"uint16","internalType":"uint16"}],"outputs":[],"stateMutability":"nonpayable"},{"type":"function","name":"updateProtocolFeeRecipient","inputs":[{"name":"recipient","type":"address","internalType":"address"}],"outputs":[],"stateMutability":"nonpayable"},{"type":"event","name":"MatchDisputeResolved","inputs":[{"name":"matchId","type":"uint256","indexed":true,"internalType":"uint256"},{"name":"enforcedOutcome","type":"uint8","indexed":false,"internalType":"enum AMPTypes.OutcomeCode"}],"anonymous":false},{"type":"event","name":"MatchDisputed","inputs":[{"name":"matchId","type":"uint256","indexed":true,"internalType":"uint256"}],"anonymous":false},{"type":"event","name":"MatchSettled","inputs":[{"name":"matchId","type":"uint256","indexed":true,"internalType":"uint256"},{"name":"outcome","type":"uint8","indexed":false,"internalType":"enum AMPTypes.OutcomeCode"},{"name":"payout","type":"uint256","indexed":false,"internalType":"uint256"}],"anonymous":false},{"type":"event","name":"OwnershipTransferStarted","inputs":[{"name":"previousOwner","type":"address","indexed":true,"internalType":"address"},{"name":"newOwner","type":"address","indexed":true,"internalType":"address"}],"anonymous":false},{"type":"event","name":"OwnershipTransferred","inputs":[{"name":"previousOwner","type":"address","indexed":true,"internalType":"address"},{"name":"newOwner","type":"address","indexed":true,"internalType":"address"}],"anonymous":false},{"type":"event","name":"Paused","inputs":[{"name":"account","type":"address","indexed":false,"internalType":"address"}],"anonymous":false},{"type":"event","name":"ProtocolFeeRecipientUpdated","inputs":[{"name":"recipient","type":"address","indexed":true,"internalType":"address"}],"anonymous":false},{"type":"event","name":"ProtocolFeeUpdated","inputs":[{"name":"feeBps","type":"uint16","indexed":false,"internalType":"uint16"}],"anonymous":false},{"type":"event","name":"Unpaused","inputs":[{"name":"account","type":"address","indexed":false,"internalType":"address"}],"anonymous":false},{"type":"error","name":"ECDSAInvalidSignature","inputs":[]},{"type":"error","name":"ECDSAInvalidSignatureLength","inputs":[{"name":"length","type":"uint256","internalType":"uint256"}]},{"type":"error","name":"ECDSAInvalidSignatureS","inputs":[{"name":"s","type":"bytes32","internalType":"bytes32"}]},{"type":"error","name":"EnforcedPause","inputs":[]},{"type":"error","name":"ExpectedPause","inputs":[]},{"type":"error","name":"FeeExceedsMax","inputs":[]},{"type":"error","name":"InvalidRecipient","inputs":[]},{"type":"error","name":"InvalidVerifierSignature","inputs":[]},{"type":"error","name":"MatchIdMismatch","inputs":[]},{"type":"error","name":"MatchNotSettlable","inputs":[]},{"type":"error","name":"NoOpponent","inputs":[]},{"type":"error","name":"NotAPlayer","inputs":[]},{"type":"error","name":"NotArbiter","inputs":[]},{"type":"error","name":"NotDisputed","inputs":[]},{"type":"error","name":"OwnableInvalidOwner","inputs":[{"name":"owner","type":"address","internalType":"address"}]},{"type":"error","name":"OwnableUnauthorizedAccount","inputs":[{"name":"account","type":"address","internalType":"address"}]},{"type":"error","name":"WrongMode","inputs":[]}],"bytecode":{"object":"0x60a0604052346100775761001961001461013c565b6102f4565b61002161007c565b61351561064582396080518181816108990152818161141a0152818161149e0152818161162801528181611e7101528181611ef6015281816121860152818161243d015281816124c20152612cae015261351590f35b610082565b60405190565b5f80fd5b601f801991011690565b634e487b7160e01b5f52604160045260245ffd5b906100ae90610086565b810190811060018060401b038211176100c657604052565b610090565b906100de6100d761007c565b92836100a4565b565b5f80fd5b60018060a01b031690565b6100f8906100e4565b90565b610104816100ef565b0361010b57565b5f80fd5b9050519061011c826100fb565b565b9060208282031261013757610134915f0161010f565b90565b6100e0565b61015a613b5a8038038061014f816100cb565b92833981019061011e565b90565b90565b61ffff1690565b90565b61017e6101796101839261015d565b610167565b610160565b90565b60a81b90565b9061019c61ffff60a81b91610186565b9181191691161790565b6101ba6101b56101bf92610160565b610167565b610160565b90565b90565b906101da6101d56101e1926101a6565b6101c2565b825461018c565b9055565b5f1b90565b906101fb60018060a01b03916101e5565b9181191691161790565b61021961021461021e926100e4565b610167565b6100e4565b90565b61022a90610205565b90565b61023690610221565b90565b90565b9061025161024c6102589261022d565b610239565b82546101ea565b9055565b906102685f19916101e5565b9181191691161790565b90565b61028961028461028e92610272565b610167565b610272565b90565b90565b906102a96102a46102b092610275565b610291565b825461025c565b9055565b90565b6102c0906102b4565b90565b5f1c90565b6102d1906102c3565b90565b906102e96102e46102f0926102b7565b6102c8565b825461025c565b9055565b6102fd3361033e565b60805261031461030d606461016a565b60016101c5565b61031f33600261023c565b61032a466004610294565b61033c610335610498565b60036102d4565b565b61034790610349565b565b610352906103a1565b565b90565b61036b61036661037092610354565b610167565b6100e4565b90565b61037c90610357565b90565b610388906100ef565b9052565b919061039f905f6020850194019061037f565b565b806103bc6103b66103b15f610373565b6100ef565b916100ef565b146103cc576103ca9061059e565b565b6103ef6103d85f610373565b5f918291631e4fbdf760e01b83526004830161038c565b0390fd5b5f90565b7f8b73c3c69bb8fe3d512ecc4cf759cc79239f7b179b0ffacaa9a75d522b39400f90565b61042490610221565b90565b610430906102b4565b9052565b61043d90610272565b9052565b9095949261048c9461047b6104859261047160809661046760a088019c5f890190610427565b6020870190610427565b6040850190610427565b6060830190610434565b019061037f565b565b60200190565b5190565b6104a06103f3565b506104a96103f7565b6105207f9e7f093a2ab8ffeb150e097eb1ba6b26c861c27d207d7679eb833ee2d42b786c916105117fc89efdaa54c0f20c7adf612882df0950f5a951637e0307cdcb4c672f298b8bc6466104fc3061041b565b9161050561007c565b96879560208701610441565b602082018103825203826100a4565b61053261052c82610494565b9161048e565b2090565b1b90565b9190600861055a91029161055460018060a01b0384610536565b92610536565b9181191691161790565b919061057a6105756105829361022d565b610239565b90835461053a565b9055565b5f90565b61059c91610596610586565b91610564565b565b6105b2906105ad5f600161058a565b6105e5565b565b60018060a01b031690565b6105cb6105d0916102c3565b6105b4565b90565b6105dd90546105bf565b90565b5f0190565b6105ee5f6105d3565b6105f8825f61023c565b9061062c6106267f8be0079c531659141344cd1fd0a4f28419497f9722a3daafe3b4186f6b6457e09361022d565b9161022d565b9161063561007c565b8061063f816105e0565b0390a356fe60806040526004361015610013575b610c38565b61001d5f3561017c565b806308df7dc8146101775780631df47f801461017257806335659fb81461016d5780633f4ba83a14610168578063486f288f1461016357806358ffa5f11461015e5780635c975abb1461015957806364df049e146101545780636d947e4b1461014f578063715018a61461014a57806379ba5097146101455780637b103999146101405780638456cb591461013b5780638da5cb5b1461013657806390aef5be14610131578063a34597961461012c578063b57c67c314610127578063c7977be714610122578063e30c39781461011d578063e55e421114610118578063f2fde38b146101135763f698da250361000e57610c03565b610bd0565b610b9c565b610b1d565b610ae8565b610a85565b610a10565b610999565b610923565b6108f0565b6108bb565b610864565b610831565b6107fc565b61078f565b6106f8565b610698565b61056a565b6104db565b6104a6565b6103fa565b610364565b60e01c90565b60405190565b5f80fd5b5f80fd5b5f80fd5b90565b6101a081610194565b036101a757565b5f80fd5b905035906101b882610197565b565b906020828203126101d3576101d0915f016101ab565b90565b61018c565b90565b6101ef6101ea6101f492610194565b6101d8565b610194565b90565b90610201906101db565b5f5260205260405f2090565b5f1c90565b90565b6102216102269161020d565b610212565b90565b6102339054610215565b90565b60ff1690565b61024861024d9161020d565b610236565b90565b61025a905461023c565b90565b90565b61026c6102719161020d565b61025d565b90565b61027e9054610260565b90565b61028c9060056101f7565b906102985f8301610229565b916102a560018201610250565b916102be60036102b760028501610274565b9301610229565b90565b6102ca90610194565b9052565b634e487b7160e01b5f52602160045260245ffd5b600511156102ec57565b6102ce565b906102fb826102e2565b565b610306906102f1565b90565b610312906102fd565b9052565b90565b61032290610316565b9052565b61035b61036294610351606094989795610347608086019a5f8701906102c1565b6020850190610309565b6040830190610319565b01906102c1565b565b346103985761039461037f61037a3660046101ba565b610281565b9061038b949294610182565b94859485610326565b0390f35b610188565b60018060a01b031690565b6103b19061039d565b90565b6103bd816103a8565b036103c457565b5f80fd5b905035906103d5826103b4565b565b906020828203126103f0576103ed915f016103c8565b90565b61018c565b5f0190565b346104285761041261040d3660046103d7565b610d46565b61041a610182565b80610424816103f5565b0390f35b610188565b5f91031261043757565b61018c565b1c90565b61ffff1690565b61045790600861045c930261043c565b610440565b90565b9061046a9154610447565b90565b61047a600160159061045f565b90565b61ffff1690565b61048d9061047d565b9052565b91906104a4905f60208501940190610484565b565b346104d6576104b636600461042d565b6104d26104c161046d565b6104c9610182565b91829182610491565b0390f35b610188565b34610509576104eb36600461042d565b6104f3610d6d565b6104fb610182565b80610505816103f5565b0390f35b610188565b5f80fd5b908160809103126105205790565b61050e565b9190916040818403126105655761053e835f83016101ab565b92602082013567ffffffffffffffff81116105605761055d9201610512565b90565b610190565b61018c565b346105995761058361057d366004610525565b906118b7565b61058b610182565b80610595816103f5565b0390f35b610188565b91906040838203126105c657806105ba6105c3925f86016101ab565b936020016103c8565b90565b61018c565b906105d5906101db565b5f5260205260405f2090565b6105f56105f06105fa9261039d565b6101d8565b61039d565b90565b610606906105e1565b90565b610612906105fd565b90565b9061061f90610609565b5f5260205260405f2090565b9061063a61063f9260066105cb565b610615565b61064a5f8201610229565b91610663600261065c60018501610250565b9301610274565b90565b60409061068f610696949695939661068560608401985f8501906102c1565b6020830190610309565b0190610319565b565b346106cc576106c86106b46106ae36600461059e565b9061062b565b6106bf939193610182565b93849384610666565b0390f35b610188565b151590565b6106df906106d1565b9052565b91906106f6905f602085019401906106d6565b565b346107285761070836600461042d565b6107246107136118f4565b61071b610182565b918291826106e3565b0390f35b610188565b60018060a01b031690565b61074890600861074d930261043c565b61072d565b90565b9061075b9154610738565b90565b61076a60025f90610750565b90565b610776906103a8565b9052565b919061078d905f6020850194019061076d565b565b346107bf5761079f36600461042d565b6107bb6107aa61075e565b6107b2610182565b9182918261077a565b0390f35b610188565b90565b6107db6107d66107e0926107c4565b6101d8565b61047d565b90565b6107ee6101f46107c7565b90565b6107f96107e3565b90565b3461082c5761080c36600461042d565b6108286108176107f1565b61081f610182565b91829182610491565b0390f35b610188565b3461085f5761084136600461042d565b61084961192f565b610851610182565b8061085b816103f5565b0390f35b610188565b346108925761087436600461042d565b61087c611939565b610884610182565b8061088e816103f5565b0390f35b610188565b7f000000000000000000000000000000000000000000000000000000000000000090565b346108eb576108cb36600461042d565b6108e76108d6610897565b6108de610182565b9182918261077a565b0390f35b610188565b3461091e5761090036600461042d565b6109086119a6565b610910610182565b8061091a816103f5565b0390f35b610188565b346109535761093336600461042d565b61094f61093e6119d5565b610946610182565b9182918261077a565b0390f35b610188565b6109618161047d565b0361096857565b5f80fd5b9050359061097982610958565b565b9060208282031261099457610991915f0161096c565b90565b61018c565b346109c7576109b16109ac36600461097b565b611add565b6109b9610182565b806109c3816103f5565b0390f35b610188565b7f45e10a5e225b080160c0e76fbad2b0453844f9a2e77df2b70292e02b20ac684090565b6109f86109cc565b90565b9190610a0e905f60208501940190610319565b565b34610a4057610a2036600461042d565b610a3c610a2b6109f0565b610a33610182565b918291826109fb565b0390f35b610188565b90816060910312610a535790565b61050e565b9190608083820312610a805780610a74610a7d925f86016101ab565b93602001610a45565b90565b61018c565b34610ab457610a9e610a98366004610a58565b906123c8565b610aa6610182565b80610ab0816103f5565b0390f35b610188565b7f8b73c3c69bb8fe3d512ecc4cf759cc79239f7b179b0ffacaa9a75d522b39400f90565b610ae5610ab9565b90565b34610b1857610af836600461042d565b610b14610b03610add565b610b0b610182565b918291826109fb565b0390f35b610188565b34610b4d57610b2d36600461042d565b610b49610b386123d4565b610b40610182565b9182918261077a565b0390f35b610188565b60051115610b5c57565b5f80fd5b90503590610b6d82610b52565b565b9190604083820312610b975780610b8b610b94925f86016101ab565b93602001610b60565b90565b61018c565b34610bcb57610bb5610baf366004610b6f565b90612756565b610bbd610182565b80610bc7816103f5565b0390f35b610188565b34610bfe57610be8610be33660046103d7565b6127d4565b610bf0610182565b80610bfa816103f5565b0390f35b610188565b34610c3357610c1336600461042d565b610c2f610c1e6127e3565b610c26610182565b918291826109fb565b0390f35b610188565b5f80fd5b610c4d90610c48612825565b610cbd565b565b90565b610c66610c61610c6b92610c4f565b6101d8565b61039d565b90565b610c7790610c52565b90565b5f1b90565b90610c9060018060a01b0391610c7a565b9181191691161790565b90565b90610cb2610cad610cb992610609565b610c9a565b8254610c7f565b9055565b80610cd8610cd2610ccd5f610c6e565b6103a8565b916103a8565b14610d2a57610ce8816002610c9d565b610d127fc1b5345cce283376356748dc57f2dfa7120431d016fc7ca9ba641bc65f91411d91610609565b90610d1b610182565b80610d25816103f5565b0390a2565b5f634e46966960e11b815280610d42600482016103f5565b0390fd5b610d4f90610c3c565b565b610d59612825565b610d61610d63565b565b610d6b612921565b565b610d75610d51565b565b90610d8991610d8461292b565b6113e9565b565b35610d9581610197565b90565b610da1906105e1565b90565b610dad90610d98565b90565b610db9906105fd565b90565b5f80fd5b601f801991011690565b634e487b7160e01b5f52604160045260245ffd5b90610de890610dc0565b810190811067ffffffffffffffff821117610e0257604052565b610dca565b60e01b90565b90505190610e1a82610197565b565b90505190610e29826103b4565b565b60051115610e3557565b5f80fd5b90505190610e4682610e2b565b565b67ffffffffffffffff1690565b610e5e81610e48565b03610e6557565b5f80fd5b90505190610e7682610e55565b565b909160c082840312610ed757610e90835f8401610e0d565b92610e9e8160208501610e1c565b92610eac8260408301610e39565b92610ed4610ebd8460608501610e1c565b93610ecb8160808601610e69565b9360a001610e0d565b90565b61018c565b9190610eef905f602085019401906102c1565b565b610ef9610182565b3d5f823e3d90fd5b60021115610f0b57565b5f80fd5b90505190610f1c82610f01565b565b909160c082840312610f7d57610f36835f8401610e1c565b92610f448160208501610f0f565b92610f528260408301610e0d565b92610f7a610f638460608501610e1c565b93610f718160808601610e1c565b9360a001610e0d565b90565b61018c565b60021115610f8c57565b6102ce565b90610f9b82610f82565b565b60051115610fa757565b6102ce565b90610fb682610f9d565b565b35610fc281610b52565b90565b610fce81610316565b03610fd557565b5f80fd5b35610fe381610fc5565b90565b61101b61102294611011606094989795611007608086019a5f870190610319565b60208501906102c1565b6040830190610309565b0190610319565b565b60200190565b5190565b905090565b5f61190160f01b910152565b61104b6002809261102e565b61105481611033565b0190565b90565b61106761106c91610316565b611058565b9052565b602080939261108b6110846110939461103f565b809261105b565b01809261105b565b0190565b5f80fd5b5f80fd5b5f80fd5b9035906001602003813603038212156110e5570180359067ffffffffffffffff82116110e0576020019160018202360383136110db57565b61109f565b61109b565b611097565b5f80fd5b906111016110fa610182565b9283610dde565b565b67ffffffffffffffff81116111215761111d602091610dc0565b0190565b610dca565b90825f939282370152565b9092919261114661114182611103565b6110ee565b938185526020850190828401116111625761116092611126565b565b6110ea565b611172913691611131565b90565b61117e816106d1565b0361118557565b5f80fd5b9050519061119682611175565b565b906020828203126111b1576111ae915f01611189565b90565b61018c565b9160206111d79294936111d060408201965f8301906102c1565b019061076d565b565b6111e360806110ee565b90565b906111f090610194565b9052565b906111fe906102f1565b9052565b9061120c90610316565b9052565b61121a9051610194565b90565b906112295f1991610c7a565b9181191691161790565b90565b9061124b611246611252926101db565b611233565b825461121d565b9055565b61126090516102f1565b90565b9061126f60ff91610c7a565b9181191691161790565b611282906102f1565b90565b90565b9061129d6112986112a492611279565b611285565b8254611263565b9055565b6112b29051610316565b90565b6112be90610316565b90565b6112ca9061020d565b90565b906112e26112dd6112e9926112b5565b6112c1565b825461121d565b9055565b9061134a60606003611350946113105f820161130a5f8801611210565b90611236565b6113296001820161132360208801611256565b90611288565b6113426002820161133c604088016112a8565b906112cd565b019201611210565b90611236565b565b9061135c916112ed565b565b90565b61137561137061137a9261135e565b6101d8565b610194565b90565b634e487b7160e01b5f52601160045260245ffd5b6113a06113a691939293610194565b92610194565b916113b2838202610194565b9281840414901517156113c157565b61137d565b9160206113e79294936113e060408201965f830190610309565b01906102c1565b565b906113f55f8201610d8b565b61140761140184610194565b91610194565b0361189b5761146d9160c061144361143e7f0000000000000000000000000000000000000000000000000000000000000000610da4565b610db0565b634768d4ef906114628492611456610182565b97889485938493610e07565b835260048301610edc565b03915afa928315611896575f8080808080959198905093919361185e575b5090919592956114f160c06114c76114c27f0000000000000000000000000000000000000000000000000000000000000000610da4565b610db0565b63117a5b90906114e686926114da610182565b95869485938493610e07565b835260048301610edc565b03915afa908115611859575f80929050611827575b506115196115135f610f91565b91610f91565b0361180b5761153161152b6001610fac565b91610fac565b036117ef578261155161154b6115465f610c6e565b6103a8565b916103a8565b146117d35760206116206115636109cc565b6115ae6115715f8a01610d8b565b916115a0611580868c01610fb8565b61158c60408d01610fd9565b90611595610182565b958694898601610fe6565b858201810382520382610dde565b6115c06115ba8261102a565b91611024565b206115f06115cc612955565b6115e26115d7610182565b938492878401611070565b858201810382520382610dde565b6116026115fc8261102a565b91611024565b2061161a6116148960608101906110a3565b90611167565b906129af565b61165161164c7f0000000000000000000000000000000000000000000000000000000000000000610da4565b610db0565b61167363a3dc85d894929461167e611667610182565b96879586948594610e07565b8452600484016111b6565b03915afa80156117ce5761169a915f916117a0575b50156106d1565b611784578261172860209261172f94611712611740976117018a6116f86116ce60406116c78c8501610fb8565b9301610fd9565b6116ef42936116e76116de6111d9565b975f89016111e6565b8c87016111f4565b60408501611202565b606083016111e6565b61170d600587906101f7565b611352565b8391908991611722878b01610fb8565b93612b72565b9301610fb8565b9261173a6002611361565b90611391565b61176a7f6a0ab0c712a699d1df16f75f71a5abd3cfbd3600582271a1efe8026787784530926101db565b9261177f611776610182565b928392836113c6565b0390a2565b5f630574e98560e01b81528061179c600482016103f5565b0390fd5b6117c1915060203d81116117c7575b6117b98183610dde565b810190611198565b5f611693565b503d6117af565b610ef1565b5f630c2d663f60e21b8152806117eb600482016103f5565b0390fd5b5f63486d8ba360e11b815280611807600482016103f5565b0390fd5b5f632a580d6d60e01b815280611823600482016103f5565b0390fd5b611848915060c03d8111611852575b6118408183610dde565b810190610f1e565b5050505090611506565b503d611836565b610ef1565b935050505061188591935060c03d811161188f575b61187d8183610dde565b810190610e78565b939196949061148b565b503d611873565b610ef1565b5f630871c42b60e21b8152806118b3600482016103f5565b0390fd5b906118c191610d77565b565b5f90565b60a01c90565b60ff1690565b6118df6118e4916118c7565b6118cd565b90565b6118f190546118d3565b90565b6118fc6118c3565b5061190760016118e7565b90565b611912612825565b61191a61191c565b565b61192d6119285f610c6e565b612f75565b565b61193761190a565b565b611941612f8b565b6119496123d4565b61195b611955836103a8565b916103a8565b0361196b5761196990612f75565b565b611986905f91829163118cdaa760e01b83526004830161077a565b0390fd5b611992612825565b61199a61199c565b565b6119a4612ff8565b565b6119ae61198a565b565b5f90565b6119c06119c59161020d565b61072d565b90565b6119d290546119b4565b90565b6119dd6119b0565b506119e75f6119c8565b90565b6119fb906119f6612825565b611a5c565b565b60a81b90565b90611a1361ffff60a81b916119fd565b9181191691161790565b611a31611a2c611a369261047d565b6101d8565b61047d565b90565b90565b90611a51611a4c611a5892611a1d565b611a39565b8254611a03565b9055565b80611a76611a70611a6b6107e3565b61047d565b9161047d565b11611ac157611a86816001611a3c565b611abc7f15189fb9f7333d3c2ac875339ddb50cd49f554b5ed014b4b06111a437ec0b0c591611ab3610182565b91829182610491565b0390a1565b5f635ff85e3f60e01b815280611ad9600482016103f5565b0390fd5b611ae6906119ea565b565b90611afa91611af561292b565b611e40565b565b90611b4060406002611b4694611b1f5f8201611b195f8801610d8b565b90611236565b611b3860018201611b3260208801610fb8565b90611288565b019201610fd9565b906112cd565b565b90611b5291611afc565b565b611b5e60606110ee565b90565b90611bb0611ba76002611b72611b54565b94611b89611b815f8301610229565b5f88016111e6565b611ba1611b9860018301610250565b602088016111f4565b01610274565b60408401611202565b565b611bbb90611b61565b90565b611bd2611bcd611bd792610c4f565b6101d8565b610194565b90565b67ffffffffffffffff8111611bf25760208091020190565b610dca565b90611c09611c0483611bda565b6110ee565b918252565b369037565b90611c38611c2083611bf7565b92602080611c2e8693611bda565b9201910390611c0e565b565b67ffffffffffffffff8111611c525760208091020190565b610dca565b90611c69611c6483611c3a565b6110ee565b918252565b369037565b90611c98611c8083611c57565b92602080611c8e8693611c3a565b9201910390611c6e565b565b5f910312611ca457565b61018c565b611cb290610fac565b90565b611cbe90611ca9565b9052565b5190565b60209181520190565b60200190565b611cde906103a8565b9052565b90611cef81602093611cd5565b0190565b60200190565b90611d16611d10611d0984611cc2565b8093611cc6565b92611ccf565b905f5b818110611d265750505090565b909192611d3f611d396001928651611ce2565b94611cf3565b9101919091611d19565b5190565b60209181520190565b60200190565b611d6590610194565b9052565b90611d7681602093611d5c565b0190565b60200190565b90611d9d611d97611d9084611d49565b8093611d4d565b92611d56565b905f5b818110611dad5750505090565b909192611dc6611dc06001928651611d69565b94611d7a565b9101919091611da0565b611dd990611bbe565b9052565b969593611e3e9591611e2891611e1b60a096611e11611e369760208e611e0a60c08201985f8301906102c1565b0190611cb5565b60408c019061076d565b89820360608b0152611cf9565b908782036080890152611d80565b940190611dd0565b565b90611e4c5f8201610d8b565b611e5e611e5884610194565b91610194565b036123ac57611ec49160c0611e9a611e957f0000000000000000000000000000000000000000000000000000000000000000610da4565b610db0565b634768d4ef90611eb98492611ead610182565b97889485938493610e07565b835260048301610edc565b03915afa9283156123a7575f80808080809492959193989050612368575b5060c0611f46919794929397611f1f611f1a7f0000000000000000000000000000000000000000000000000000000000000000610da4565b610db0565b611f3b63117a5b90611f2f610182565b95869485938493610e07565b835260048301610edc565b03915afa908115612363575f80929050612331575b50611f6f611f696001610f91565b91610f91565b0361231557611f87611f816001610fac565b91610fac565b036122f95733611f9f611f99846103a8565b916103a8565b1415806122de575b6122c257611fca84611fc5611fbe600687906105cb565b3390610615565b611b48565b33611fdd611fd7846103a8565b916103a8565b145f146122b657612002611ffd825b611ff8600687906105cb565b610615565b611bb2565b61200e60208201611256565b61202061201a5f6102f1565b916102f1565b0361202e575b505050505050565b61203a60208601610fb8565b61205761205161204c60208501611256565b6102f1565b916102f1565b149081612285575b505f1461215657826120f06120f7936020936120da612108976120c98a6120c0612096604061208f8c8501610fb8565b9301610fd9565b6120b742936120af6120a66111d9565b975f89016111e6565b8c87016111f4565b60408501611202565b606083016111e6565b6120d5600587906101f7565b611352565b83919089916120ea878b01610fb8565b93612b72565b9301610fb8565b926121026002611361565b90611391565b6121327f6a0ab0c712a699d1df16f75f71a5abd3cfbd3600582271a1efe8026787784530926101db565b9261214761213e610182565b928392836113c6565b0390a25b5f8080808080612026565b505091505061216c6121675f611bbe565b611c13565b61217d6121785f611bbe565b611c73565b906121af6121aa7f0000000000000000000000000000000000000000000000000000000000000000610da4565b610db0565b6380f364769084916004946121c35f610c6e565b9490915f95843b15612280575f966121ef9488946121fa936121e3610182565b9b8c9a8b998a98610e07565b885260048801611ddd565b03925af1801561227b5761224f575b506122347f0959dd20b83b57531035e6bb80446af198f665c029c614373299a524a18b6299916101db565b9061223d610182565b80612247816103f5565b0390a261214b565b61226e905f3d8111612274575b6122668183610dde565b810190611c9a565b5f612209565b503d61225c565b610ef1565b610dbc565b90506122af6122a96122a4604061229d818a01610fd9565b94016112a8565b610316565b91610316565b145f61205f565b612002611ffd83611fec565b5f63abca351760e01b8152806122da600482016103f5565b0390fd5b50336122f26122ec836103a8565b916103a8565b1415611fa7565b5f63486d8ba360e11b815280612311600482016103f5565b0390fd5b5f632a580d6d60e01b81528061232d600482016103f5565b0390fd5b612352915060c03d811161235c575b61234a8183610dde565b810190610f1e565b5050505090611f5b565b503d612340565b610ef1565b915050611f46955060c080935061239492503d81116123a0575b61238c8183610dde565b810190610e78565b94929550509196611ee2565b503d612382565b610ef1565b5f630871c42b60e21b8152806123c4600482016103f5565b0390fd5b906123d291611ae8565b565b6123dc6119b0565b506123e760016119c8565b90565b906123fc916123f761292b565b61242f565b565b61241261240d61241792610c4f565b610c7a565b610316565b90565b919061242d905f60208501940190610309565b565b9061249060c06124666124617f0000000000000000000000000000000000000000000000000000000000000000610da4565b610db0565b634768d4ef906124858692612479610182565b95869485938493610e07565b835260048301610edc565b03915afa928315612751575f80808080809492969193989050612712575b5060c06125129197959293976124eb6124e67f0000000000000000000000000000000000000000000000000000000000000000610da4565b610db0565b61250763117a5b906124fb610182565b95869485938493610e07565b835260048301610edc565b03915afa90811561270d575f808080809593505050506126db575b509061254261253c6004610fac565b91610fac565b036126bf5761255a61255433926103a8565b916103a8565b036126a3578061257a61257461256f5f610c6e565b6103a8565b916103a8565b1461268757612643926125ec916125e0846125cf886125c661259b5f6123fe565b6125bd42936125b46125ab6111d9565b975f89016111e6565b602087016111f4565b60408501611202565b606083016111e6565b6125db600587906101f7565b611352565b83919087918793612b72565b80839061262e61261c7fdc4c443a1d2ecd1a8b320c3b700945dd0ac07fa3932b4bab4caa226709cb2d78926101db565b92612625610182565b9182918261241a565b0390a2919261263d6002611361565b90611391565b61266d7f6a0ab0c712a699d1df16f75f71a5abd3cfbd3600582271a1efe8026787784530926101db565b92612682612679610182565b928392836113c6565b0390a2565b5f630c2d663f60e21b81528061269f600482016103f5565b0390fd5b5f63665b32d360e11b8152806126bb600482016103f5565b0390fd5b5f6310cec38560e21b8152806126d7600482016103f5565b0390fd5b6126fc915060c03d8111612706575b6126f48183610dde565b810190610f1e565b509350505061252d565b503d6126ea565b610ef1565b915050612512955060c080945061273e92503d811161274a575b6127368183610dde565b810190610e78565b949296505091966124ae565b503d61272c565b610ef1565b90612760916123ea565b565b6127739061276e612825565b612775565b565b612780816001610c9d565b6127886119d5565b906127bc6127b67f38d16b8cac22d99fc7c124b9cd0de2d3fa1faef420bfe791d8c362d765e2270093610609565b91610609565b916127c5610182565b806127cf816103f5565b0390a3565b6127dd90612762565b565b5f90565b6127eb6127df565b50466128086128026127fd6004610229565b610194565b91610194565b146128185761281561305b565b90565b6128226003610274565b90565b61282d6119d5565b61284661284061283b612f8b565b6103a8565b916103a8565b0361284d57565b61286f612858612f8b565b5f91829163118cdaa760e01b83526004830161077a565b0390fd5b61287b6130f9565b6128836128d3565b565b60a01b90565b9061289a60ff60a01b91612885565b9181191691161790565b6128ad906106d1565b90565b90565b906128c86128c36128cf926128a4565b6128b0565b825461288b565b9055565b6128de5f60016128b3565b6128e6612f8b565b61291c7f5db9ee0a495bf2e6ff9c91a7834c1ba4fdd244a5e8aa4e537bd38aeae4b073aa91612913610182565b9182918261077a565b0390a1565b612929612873565b565b6129336118f4565b61293957565b5f63d93c066560e01b815280612951600482016103f5565b0390fd5b61295d6127df565b504661297a61297461296f6004610229565b610194565b91610194565b0361298d575b61298a6003610274565b90565b612998466004611236565b6129aa6129a361305b565b60036112cd565b612980565b6129ce916129c5916129bf6119b0565b5061316f565b90929192613243565b90565b60a81c90565b6129e36129e8916129d1565b610440565b90565b6129f590546129d7565b90565b612a0c612a07612a119261047d565b6101d8565b610194565b90565b90565b612a2b612a26612a3092612a14565b6101d8565b610194565b90565b634e487b7160e01b5f52601260045260245ffd5b612a53612a5991610194565b91610194565b908115612a64570490565b612a33565b612a78612a7e91939293610194565b92610194565b8203918211612a8957565b61137d565b634e487b7160e01b5f52603260045260245ffd5b90612aac82611cc2565b811015612abd576020809102010190565b612a8e565b90612acc906103a8565b9052565b90565b612ae7612ae2612aec92612ad0565b6101d8565b610194565b90565b90612af982611d49565b811015612b0a576020809102010190565b612a8e565b969593612b709591612b5a91612b4d60a096612b43612b689760208e612b3c60c08201985f8301906102c1565b0190611cb5565b60408c019061076d565b89820360608b0152611cf9565b908782036080890152611d80565b9401906102c1565b565b93919092612b8a81612b846002611361565b90611391565b9180612ba6612ba0612b9b5f610c6e565b6103a8565b916103a8565b14612f08575b612be7612bdf612bce85612bc8612bc360016129eb565b6129f8565b90611391565b612bd9612710612a17565b90612a47565b938490612a69565b91612c16612bfd612bf86002611361565b611c13565b96612c1188612c0b5f611bbe565b90612aa2565b612ac2565b612c3382612c2e88612c286001612ad3565b90612aa2565b612ac2565b612c45612c406002611361565b611c73565b9480612c5a612c5460016102f1565b916102f1565b145f14612d6a57505050612c8090612c7b84612c755f611bbe565b90612aef565b6111e6565b612ca5612c8c5f611bbe565b612ca084612c9a6001612ad3565b90612aef565b6111e6565b5b612cd7612cd27f0000000000000000000000000000000000000000000000000000000000000000610da4565b610db0565b906380f364769492600295612cec60026119c8565b95919295843b15612d65575f96612d17948894612d2293612d0b610182565b9b8c9a8b998a98610e07565b885260048801612b0f565b03925af18015612d6057612d34575b50565b612d53905f3d8111612d59575b612d4b8183610dde565b810190611c9a565b5f612d31565b503d612d41565b610ef1565b610dbc565b80612d7e612d7860026102f1565b916102f1565b145f14612dcf57505050612dc990612db0612d985f611bbe565b612dab86612da55f611bbe565b90612aef565b6111e6565b612dc484612dbe6001612ad3565b90612aef565b6111e6565b5b612ca6565b80612de3612ddd60036102f1565b916102f1565b145f14612e6357505050612e4481612e23612e0b612e5d94612e056002611361565b90612a47565b612e1e87612e185f611bbe565b90612aef565b6111e6565b612e3e612e3986612e335f611bbe565b90612aef565b611210565b90612a69565b612e5884612e526001612ad3565b90612aef565b6111e6565b5b612dca565b90919250612e7a612e7460046102f1565b916102f1565b14612e87575b5050612e5e565b909150612e935f611bbe565b91612eb082612eab86612ea55f611bbe565b90612aef565b6111e6565b612eca612ec4612ebf5f610c6e565b6103a8565b916103a8565b145f14612eff5750612ef8612ede5f611bbe565b5b612ef384612eed6001612ad3565b90612aef565b6111e6565b5f80612e80565b612ef890612edf565b91508091612bac565b1b90565b91906008612f35910291612f2f60018060a01b0384612f11565b92612f11565b9181191691161790565b9190612f55612f50612f5d93610609565b610c9a565b908354612f15565b9055565b612f7391612f6d6119b0565b91612f3f565b565b612f8990612f845f6001612f61565b613314565b565b612f936119b0565b503390565b612fa061292b565b612fa8612faa565b565b612fb56001806128b3565b612fbd612f8b565b612ff37f62e78cea01bee320cd4e420270b5ea74000d11b0c9f74754ebdbfc544b05a25891612fea610182565b9182918261077a565b0390a1565b613000612f98565b565b61300b906105fd565b90565b90959492613059946130486130529261303e60809661303460a088019c5f890190610319565b6020870190610319565b6040850190610319565b60608301906102c1565b019061076d565b565b6130636127df565b5061306c610ab9565b6130e37f9e7f093a2ab8ffeb150e097eb1ba6b26c861c27d207d7679eb833ee2d42b786c916130d47fc89efdaa54c0f20c7adf612882df0950f5a951637e0307cdcb4c672f298b8bc6466130bf30613002565b916130c8610182565b9687956020870161300e565b60208201810382520382610dde565b6130f56130ef8261102a565b91611024565b2090565b61310a6131046118f4565b156106d1565b61311057565b5f638dfc202b60e01b815280613128600482016103f5565b0390fd5b5f90565b90565b61314761314261314c92613130565b6101d8565b610194565b90565b61316361315e61316892610194565b610c7a565b610316565b90565b5f90565b91909161317a6119b0565b5061318361312c565b5061318c6127df565b506131968361102a565b6131a96131a36041613133565b91610194565b145f146131f0576131e991926131bd6127df565b506131c66127df565b506131cf61316b565b506020810151606060408301519201515f1a9091926133e3565b9192909190565b506131fa5f610c6e565b9061320e61320960029461102a565b61314f565b91929190565b6004111561321e57565b6102ce565b9061322d82613214565b565b61323b6132409161020d565b6101db565b90565b806132566132505f613223565b91613223565b145f14613261575050565b8061327561326f6001613223565b91613223565b145f14613298575f63f645eedf60e01b815280613294600482016103f5565b0390fd5b806132ac6132a66002613223565b91613223565b145f146132da576132d66132bf8361322f565b5f91829163fce698f760e01b835260048301610edc565b0390fd5b6132ed6132e76003613223565b91613223565b146132f55750565b613310905f9182916335e2f38360e21b8352600483016109fb565b0390fd5b61331d5f6119c8565b613327825f610c9d565b9061335b6133557f8be0079c531659141344cd1fd0a4f28419497f9722a3daafe3b4186f6b6457e093610609565b91610609565b91613364610182565b8061336e816103f5565b0390a3565b90565b61338a61338561338f92613373565b6101d8565b610194565b90565b60ff1690565b6133a190613392565b9052565b6133da6133e1946133d06060949897956133c6608086019a5f870190610319565b6020850190613398565b6040830190610319565b0190610319565b565b9392936133ee6119b0565b506133f761312c565b506134006127df565b5061340a8561322f565b61343c6134367f7fffffffffffffffffffffffffffffff5d576e7357a4501ddfe92f46681b20a0613376565b91610194565b116134c9579061345f602094955f94939293613456610182565b948594856133a5565b838052039060015afa156134c4576134775f51610c7a565b8061349261348c6134875f610c6e565b6103a8565b916103a8565b146134a8575f916134a25f6123fe565b91929190565b506134b25f610c6e565b6001916134be5f6123fe565b91929190565b610ef1565b5050506134d55f610c6e565b906003929192919056fea264697066735822122030dde38f24318cd1ebb7dc1c484d9a78692296f179e0a87f32d6a6d6133e490064736f6c63430008210033","linkReferences":{}},"methodIdentifiers":{"ASYNC_RESULT_TYPEHASH()":"a3459796","EIP712_DOMAIN_TYPEHASH()":"c7977be7","MAX_PROTOCOL_FEE_BPS()":"6d947e4b","acceptOwnership()":"79ba5097","domainSeparator()":"f698da25","owner()":"8da5cb5b","pause()":"8456cb59","paused()":"5c975abb","pendingOwner()":"e30c3978","protocolFeeBps()":"35659fb8","protocolFeeRecipient()":"64df049e","registry()":"7b103999","renounceOwnership()":"715018a6","resolveDispute(uint256,uint8)":"e55e4211","rtResults(uint256,address)":"58ffa5f1","settlements(uint256)":"08df7dc8","submitAsyncResult(uint256,(uint256,uint8,bytes32,bytes))":"486f288f","submitRealTimeHashResult(uint256,(uint256,uint8,bytes32))":"b57c67c3","transferOwnership(address)":"f2fde38b","unpause()":"3f4ba83a","updateProtocolFeeBps(uint16)":"90aef5be","updateProtocolFeeRecipient(address)":"1df47f80"},"id":40}