{"abi":[{"type":"constructor","inputs":[{"name":"_registry","type":"address","internalType":"address"}],"stateMutability":"nonpayable"},{"type":"function","name":"ASYNC_RESULT_TYPEHASH","inputs":[],"outputs":[{"name":"","type":"bytes32","internalType":"bytes32"}],"stateMutability":"view"},{"type":"function","name":"MAX_PROTOCOL_FEE_BPS","inputs":[],"outputs":[{"name":"","type":"uint16","internalType":"uint16"}],"stateMutability":"view"},{"type":"function","name":"acceptOwnership","inputs":[],"outputs":[],"stateMutability":"nonpayable"},{"type":"function","name":"domainSeparator","inputs":[],"outputs":[{"name":"","type":"bytes32","internalType":"bytes32"}],"stateMutability":"view"},{"type":"function","name":"eip712Domain","inputs":[],"outputs":[{"name":"fields","type":"bytes1","internalType":"bytes1"},{"name":"name","type":"string","internalType":"string"},{"name":"version","type":"string","internalType":"string"},{"name":"chainId","type":"uint256","internalType":"uint256"},{"name":"verifyingContract","type":"address","internalType":"address"},{"name":"salt","type":"bytes32","internalType":"bytes32"},{"name":"extensions","type":"uint256[]","internalType":"uint256[]"}],"stateMutability":"view"},{"type":"function","name":"owner","inputs":[],"outputs":[{"name":"","type":"address","internalType":"address"}],"stateMutability":"view"},{"type":"function","name":"pause","inputs":[],"outputs":[],"stateMutability":"nonpayable"},{"type":"function","name":"paused","inputs":[],"outputs":[{"name":"","type":"bool","internalType":"bool"}],"stateMutability":"view"},{"type":"function","name":"pendingOwner","inputs":[],"outputs":[{"name":"","type":"address","internalType":"address"}],"stateMutability":"view"},{"type":"function","name":"protocolFeeBps","inputs":[],"outputs":[{"name":"","type":"uint16","internalType":"uint16"}],"stateMutability":"view"},{"type":"function","name":"protocolFeeRecipient","inputs":[],"outputs":[{"name":"","type":"address","internalType":"address"}],"stateMutability":"view"},{"type":"function","name":"registry","inputs":[],"outputs":[{"name":"","type":"address","internalType":"address"}],"stateMutability":"view"},{"type":"function","name":"renounceOwnership","inputs":[],"outputs":[],"stateMutability":"nonpayable"},{"type":"function","name":"resolveDispute","inputs":[{"name":"matchId","type":"uint256","internalType":"uint256"},{"name":"enforcedOutcome","type":"uint8","internalType":"enum AMPTypes.OutcomeCode"}],"outputs":[],"stateMutability":"nonpayable"},{"type":"function","name":"rtResults","inputs":[{"name":"","type":"uint256","internalType":"uint256"},{"name":"","type":"address","internalType":"address"}],"outputs":[{"name":"matchId","type":"uint256","internalType":"uint256"},{"name":"outcome","type":"uint8","internalType":"enum AMPTypes.OutcomeCode"},{"name":"transcriptHash","type":"bytes32","internalType":"bytes32"}],"stateMutability":"view"},{"type":"function","name":"settlements","inputs":[{"name":"","type":"uint256","internalType":"uint256"}],"outputs":[{"name":"matchId","type":"uint256","internalType":"uint256"},{"name":"outcome","type":"uint8","internalType":"enum AMPTypes.OutcomeCode"},{"name":"transcriptHash","type":"bytes32","internalType":"bytes32"},{"name":"settledAt","type":"uint256","internalType":"uint256"}],"stateMutability":"view"},{"type":"function","name":"submitAsyncResult","inputs":[{"name":"matchId","type":"uint256","internalType":"uint256"},{"name":"result","type":"tuple","internalType":"struct AMPTypes.AsyncResult","components":[{"name":"matchId","type":"uint256","internalType":"uint256"},{"name":"outcome","type":"uint8","internalType":"enum AMPTypes.OutcomeCode"},{"name":"transcriptHash","type":"bytes32","internalType":"bytes32"},{"name":"signature","type":"bytes","internalType":"bytes"}]}],"outputs":[],"stateMutability":"nonpayable"},{"type":"function","name":"submitRealTimeHashResult","inputs":[{"name":"matchId","type":"uint256","internalType":"uint256"},{"name":"result","type":"tuple","internalType":"struct AMPTypes.RealTimeHashResult","components":[{"name":"matchId","type":"uint256","internalType":"uint256"},{"name":"outcome","type":"uint8","internalType":"enum AMPTypes.OutcomeCode"},{"name":"transcriptHash","type":"bytes32","internalType":"bytes32"}]}],"outputs":[],"stateMutability":"nonpayable"},{"type":"function","name":"transferOwnership","inputs":[{"name":"newOwner","type":"address","internalType":"address"}],"outputs":[],"stateMutability":"nonpayable"},{"type":"function","name":"unpause","inputs":[],"outputs":[],"stateMutability":"nonpayable"},{"type":"function","name":"updateProtocolFeeBps","inputs":[{"name":"feeBps","type":"uint16","internalType":"uint16"}],"outputs":[],"stateMutability":"nonpayable"},{"type":"function","name":"updateProtocolFeeRecipient","inputs":[{"name":"recipient","type":"address","internalType":"address"}],"outputs":[],"stateMutability":"nonpayable"},{"type":"event","name":"EIP712DomainChanged","inputs":[],"anonymous":false},{"type":"event","name":"MatchDisputeResolved","inputs":[{"name":"matchId","type":"uint256","indexed":true,"internalType":"uint256"},{"name":"enforcedOutcome","type":"uint8","indexed":false,"internalType":"enum AMPTypes.OutcomeCode"}],"anonymous":false},{"type":"event","name":"MatchDisputed","inputs":[{"name":"matchId","type":"uint256","indexed":true,"internalType":"uint256"}],"anonymous":false},{"type":"event","name":"MatchSettled","inputs":[{"name":"matchId","type":"uint256","indexed":true,"internalType":"uint256"},{"name":"outcome","type":"uint8","indexed":false,"internalType":"enum AMPTypes.OutcomeCode"},{"name":"payout","type":"uint256","indexed":false,"internalType":"uint256"}],"anonymous":false},{"type":"event","name":"OwnershipTransferStarted","inputs":[{"name":"previousOwner","type":"address","indexed":true,"internalType":"address"},{"name":"newOwner","type":"address","indexed":true,"internalType":"address"}],"anonymous":false},{"type":"event","name":"OwnershipTransferred","inputs":[{"name":"previousOwner","type":"address","indexed":true,"internalType":"address"},{"name":"newOwner","type":"address","indexed":true,"internalType":"address"}],"anonymous":false},{"type":"event","name":"Paused","inputs":[{"name":"account","type":"address","indexed":false,"internalType":"address"}],"anonymous":false},{"type":"event","name":"ProtocolFeeRecipientUpdated","inputs":[{"name":"recipient","type":"address","indexed":true,"internalType":"address"}],"anonymous":false},{"type":"event","name":"ProtocolFeeUpdated","inputs":[{"name":"feeBps","type":"uint16","indexed":false,"internalType":"uint16"}],"anonymous":false},{"type":"event","name":"Unpaused","inputs":[{"name":"account","type":"address","indexed":false,"internalType":"address"}],"anonymous":false},{"type":"error","name":"ECDSAInvalidSignature","inputs":[]},{"type":"error","name":"ECDSAInvalidSignatureLength","inputs":[{"name":"length","type":"uint256","internalType":"uint256"}]},{"type":"error","name":"ECDSAInvalidSignatureS","inputs":[{"name":"s","type":"bytes32","internalType":"bytes32"}]},{"type":"error","name":"EnforcedPause","inputs":[]},{"type":"error","name":"ExpectedPause","inputs":[]},{"type":"error","name":"FeeExceedsMax","inputs":[]},{"type":"error","name":"InvalidOutcome","inputs":[]},{"type":"error","name":"InvalidRecipient","inputs":[]},{"type":"error","name":"InvalidShortString","inputs":[]},{"type":"error","name":"InvalidVerifierSignature","inputs":[]},{"type":"error","name":"MatchIdMismatch","inputs":[]},{"type":"error","name":"MatchNotSettlable","inputs":[]},{"type":"error","name":"NoOpponent","inputs":[]},{"type":"error","name":"NotAPlayer","inputs":[]},{"type":"error","name":"NotArbiter","inputs":[]},{"type":"error","name":"NotDisputed","inputs":[]},{"type":"error","name":"OwnableInvalidOwner","inputs":[{"name":"owner","type":"address","internalType":"address"}]},{"type":"error","name":"OwnableUnauthorizedAccount","inputs":[{"name":"account","type":"address","internalType":"address"}]},{"type":"error","name":"ReentrancyGuardReentrantCall","inputs":[]},{"type":"error","name":"StringTooLong","inputs":[{"name":"str","type":"string","internalType":"string"}]},{"type":"error","name":"WrongMode","inputs":[]}],"bytecode":{"object":"0x610180604052346100bb5761001a610015610180565b61036e565b6100226100c0565b613c2d610d098239608051816132b0015260a051816132e7015260c05181613277015260e051816138760152610100518161389b015261012051816131eb0152610140518161322b015261016051818181610899015281816114e60152818161156c015281816116bd01528181611f5c01528181611fe40152818161226f0152818161252a015281816125b10152612e560152613c2d90f35b6100c6565b60405190565b5f80fd5b601f801991011690565b634e487b7160e01b5f52604160045260245ffd5b906100f2906100ca565b810190811060018060401b0382111761010a57604052565b6100d4565b9061012261011b6100c0565b92836100e8565b565b5f80fd5b60018060a01b031690565b61013c90610128565b90565b61014881610133565b0361014f57565b5f80fd5b905051906101608261013f565b565b9060208282031261017b57610178915f01610153565b90565b610124565b61019e614936803803806101938161010f565b928339810190610162565b90565b60018060401b0381116101bd576101b96020916100ca565b0190565b6100d4565b906101d46101cf836101a1565b61010f565b918252565b5f7f414d50536574746c656d656e7400000000000000000000000000000000000000910152565b61020a600d6101c2565b90610217602083016101d9565b565b610221610200565b90565b5f7f3100000000000000000000000000000000000000000000000000000000000000910152565b61025560016101c2565b9061026260208301610224565b565b61026c61024b565b90565b90565b61ffff1690565b90565b61029061028b6102959261026f565b610279565b610272565b90565b5f1b90565b906102aa61ffff91610298565b9181191691161790565b6102c86102c36102cd92610272565b610279565b610272565b90565b90565b906102e86102e36102ef926102b4565b6102d0565b825461029d565b9055565b60101b90565b9061030d62010000600160b01b03916102f3565b9181191691161790565b61032b61032661033092610128565b610279565b610128565b90565b61033c90610317565b90565b61034890610333565b90565b90565b9061036361035e61036a9261033f565b61034b565b82546102f9565b9055565b610388610379610219565b610381610264565b3391610431565b610160526103a0610399606461027c565b60046102d3565b6103ab33600461034e565b565b90565b90565b6103c76103c26103cc926103ad565b610279565b6103b0565b90565b6103d960016103b3565b90565b906103e85f1991610298565b9181191691161790565b61040661040161040b926103b0565b610279565b6103b0565b90565b90565b9061042661042161042d926103f2565b61040e565b82546103dc565b9055565b9061043c929161047c565b61045e6104476103cf565b5f610458610453610622565b610636565b01610411565b565b90565b90565b60200190565b5190565b61047990610333565b90565b6104c19061048c6104dc94610510565b6104a08161049a6002610460565b906108d2565b610120526104b8836104b26003610460565b906108d2565b61014052610463565b6104d36104cd8261046c565b91610466565b2060e052610463565b6104ee6104e88261046c565b91610466565b20610100524660a0526104ff6109d3565b60805261050b30610470565b60c052565b6105199061051b565b565b61052490610526565b565b61052f9061057e565b565b90565b61054861054361054d92610531565b610279565b610128565b90565b61055990610534565b90565b61056590610133565b9052565b919061057c905f6020850194019061055c565b565b8061059961059361058e5f610550565b610133565b91610133565b146105a9576105a790610aa8565b565b6105cc6105b55f610550565b5f918291631e4fbdf760e01b835260048301610569565b0390fd5b5f90565b90565b90565b6105ee6105e96105f3926105d4565b610298565b6105d7565b90565b61061f7f9b779b17422d0df92223018b32b4d1fa46e071723d6817e2486d003becc55f006105da565b90565b61062a6105d0565b506106336105f6565b90565b90565b5f90565b90565b61065461064f6106599261063d565b610279565b6103b0565b90565b5190565b634e487b7160e01b5f52602260045260245ffd5b9060016002830492168015610694575b602083101461068f57565b610660565b91607f1691610684565b5f5260205f2090565b601f602091010490565b1b90565b919060086106d09102916106ca5f19846106b1565b926106b1565b9181191691161790565b91906106f06106eb6106f8936103f2565b61040e565b9083546106b5565b9055565b5f90565b6107129161070c6106fc565b916106da565b565b5f5b82811061072257505050565b806107315f6001938501610700565b01610716565b9190601f8111610747575b505050565b818111610754575b610742565b6107696107636107879461069e565b916106a7565b916020610775826106a7565b911061078f575b809101910390610714565b5f808061074f565b505f61077c565b1c90565b906107aa905f1990600802610796565b191690565b816107b99161079a565b906002021790565b906107cb8161065c565b9060018060401b038211610889576107ed826107e78554610674565b85610737565b602090601f831160011461082157918091610810935f92610815575b50506107af565b90555b565b90915001515f80610809565b601f198316916108308561069e565b925f5b81811061087157509160029391856001969410610857575b50505002019055610813565b610867910151601f84169061079a565b90555f808061084b565b91936020600181928787015181550195019201610833565b6100d4565b90610898916107c1565b565b90565b6108b16108ac6108b69261089a565b610298565b6105d7565b90565b6108c360ff61089d565b90565b6108cf906105d7565b90565b906108db610639565b506108ed6108e883610463565b61046c565b6109006108fa6020610640565b916103b0565b105f14610914575061091190610bb3565b90565b5f6109226109289392610abe565b0161088e565b6109386109336108b9565b6108c6565b90565b7f8b73c3c69bb8fe3d512ecc4cf759cc79239f7b179b0ffacaa9a75d522b39400f90565b61096990516105d7565b90565b610975906105d7565b9052565b610982906103b0565b9052565b909594926109d1946109c06109ca926109b66080966109ac60a088019c5f89019061096c565b602087019061096c565b604085019061096c565b6060830190610979565b019061055c565b565b6109db6105d0565b506109e461093b565b610a2e6109f160e061095f565b91610a1f610a0061010061095f565b46610a0a30610470565b91610a136100c0565b96879560208701610986565b602082018103825203826100e8565b610a40610a3a8261046c565b91610466565b2090565b91906008610a64910291610a5e60018060a01b03846106b1565b926106b1565b9181191691161790565b9190610a84610a7f610a8c9361033f565b61034b565b908354610a44565b9055565b5f90565b610aa691610aa0610a90565b91610a6e565b565b610abc90610ab75f6001610a94565b610ca9565b565b90565b90565b610ad8610ad3610add92610ac1565b610279565b6103b0565b90565b60209181520190565b90825f9392825e0152565b610b13610b1c602093610b2193610b0a8161065c565b93848093610ae0565b95869101610ae9565b6100ca565b0190565b610b3a9160208201915f818403910152610af4565b90565b610b57610b52610b4c8361046c565b92610466565b61095f565b9060208110610b65575b5090565b610b77905f19906020036008026106b1565b165f610b61565b5f1c90565b610b8f610b9491610b7e565b6103f2565b90565b610bab610ba6610bb0926103b0565b610298565b6105d7565b90565b610bbb610639565b50610bc581610463565b90610bcf8261046c565b610be2610bdc601f610ac4565b916103b0565b11610c175750610c0f81610c09610c03610bfe610c1495610b3d565b610b83565b9161046c565b17610b97565b6108c6565b90565b610c3990610c236100c0565b91829163305a27a960e01b835260048301610b25565b0390fd5b60018060a01b031690565b610c54610c5991610b7e565b610c3d565b90565b610c669054610c48565b90565b90610c7a60018060a01b0391610298565b9181191691161790565b90610c99610c94610ca09261033f565b61034b565b8254610c69565b9055565b5f0190565b610cb25f610c5c565b610cbc825f610c84565b90610cf0610cea7f8be0079c531659141344cd1fd0a4f28419497f9722a3daafe3b4186f6b6457e09361033f565b9161033f565b91610cf96100c0565b80610d0381610ca4565b0390a356fe60806040526004361015610013575b610d75565b61001d5f3561017c565b806308df7dc8146101775780631df47f801461017257806335659fb81461016d5780633f4ba83a14610168578063486f288f1461016357806358ffa5f11461015e5780635c975abb1461015957806364df049e146101545780636d947e4b1461014f578063715018a61461014a57806379ba5097146101455780637b103999146101405780638456cb591461013b57806384b0196e146101365780638da5cb5b1461013157806390aef5be1461012c578063a345979614610127578063b57c67c314610122578063e30c39781461011d578063e55e421114610118578063f2fde38b146101135763f698da250361000e57610d40565b610d0d565b610cd9565b610c5a565b610c26565b610bb1565b610b3a565b610ac4565b610a88565b6108f0565b6108bb565b610864565b610831565b6107fc565b61078f565b6106f7565b610697565b610569565b6104da565b6104a5565b6103fa565b610364565b60e01c90565b60405190565b5f80fd5b5f80fd5b5f80fd5b90565b6101a081610194565b036101a757565b5f80fd5b905035906101b882610197565b565b906020828203126101d3576101d0915f016101ab565b90565b61018c565b90565b6101ef6101ea6101f492610194565b6101d8565b610194565b90565b90610201906101db565b5f5260205260405f2090565b5f1c90565b90565b6102216102269161020d565b610212565b90565b6102339054610215565b90565b60ff1690565b61024861024d9161020d565b610236565b90565b61025a905461023c565b90565b90565b61026c6102719161020d565b61025d565b90565b61027e9054610260565b90565b61028c9060056101f7565b906102985f8301610229565b916102a560018201610250565b916102be60036102b760028501610274565b9301610229565b90565b6102ca90610194565b9052565b634e487b7160e01b5f52602160045260245ffd5b600511156102ec57565b6102ce565b906102fb826102e2565b565b610306906102f1565b90565b610312906102fd565b9052565b90565b61032290610316565b9052565b61035b61036294610351606094989795610347608086019a5f8701906102c1565b6020850190610309565b6040830190610319565b01906102c1565b565b346103985761039461037f61037a3660046101ba565b610281565b9061038b949294610182565b94859485610326565b0390f35b610188565b60018060a01b031690565b6103b19061039d565b90565b6103bd816103a8565b036103c457565b5f80fd5b905035906103d5826103b4565b565b906020828203126103f0576103ed915f016103c8565b90565b61018c565b5f0190565b346104285761041261040d3660046103d7565b610e87565b61041a610182565b80610424816103f5565b0390f35b610188565b5f91031261043757565b61018c565b1c90565b61ffff1690565b61045790600861045c930261043c565b610440565b90565b9061046a9154610447565b90565b61047960045f9061045f565b90565b61ffff1690565b61048c9061047c565b9052565b91906104a3905f60208501940190610483565b565b346104d5576104b536600461042d565b6104d16104c061046d565b6104c8610182565b91829182610490565b0390f35b610188565b34610508576104ea36600461042d565b6104f2610eae565b6104fa610182565b80610504816103f5565b0390f35b610188565b5f80fd5b9081608091031261051f5790565b61050d565b9190916040818403126105645761053d835f83016101ab565b92602082013567ffffffffffffffff811161055f5761055c9201610511565b90565b610190565b61018c565b346105985761058261057c366004610524565b90611946565b61058a610182565b80610594816103f5565b0390f35b610188565b91906040838203126105c557806105b96105c2925f86016101ab565b936020016103c8565b90565b61018c565b906105d4906101db565b5f5260205260405f2090565b6105f46105ef6105f99261039d565b6101d8565b61039d565b90565b610605906105e0565b90565b610611906105fc565b90565b9061061e90610608565b5f5260205260405f2090565b9061063961063e9260066105ca565b610614565b6106495f8201610229565b91610662600261065b60018501610250565b9301610274565b90565b60409061068e610695949695939661068460608401985f8501906102c1565b6020830190610309565b0190610319565b565b346106cb576106c76106b36106ad36600461059d565b9061062a565b6106be939193610182565b93849384610665565b0390f35b610188565b151590565b6106de906106d0565b9052565b91906106f5905f602085019401906106d5565b565b346107275761070736600461042d565b610723610712611983565b61071a610182565b918291826106e2565b0390f35b610188565b60018060a01b031690565b61074790600861074c930261043c565b61072c565b90565b9061075a9154610737565b90565b61076a600460029061074f565b90565b610776906103a8565b9052565b919061078d905f6020850194019061076d565b565b346107bf5761079f36600461042d565b6107bb6107aa61075d565b6107b2610182565b9182918261077a565b0390f35b610188565b90565b6107db6107d66107e0926107c4565b6101d8565b61047c565b90565b6107ee6101f46107c7565b90565b6107f96107e3565b90565b3461082c5761080c36600461042d565b6108286108176107f1565b61081f610182565b91829182610490565b0390f35b610188565b3461085f5761084136600461042d565b6108496119be565b610851610182565b8061085b816103f5565b0390f35b610188565b346108925761087436600461042d565b61087c6119c8565b610884610182565b8061088e816103f5565b0390f35b610188565b7f000000000000000000000000000000000000000000000000000000000000000090565b346108eb576108cb36600461042d565b6108e76108d6610897565b6108de610182565b9182918261077a565b0390f35b610188565b3461091e5761090036600461042d565b610908611a35565b610910610182565b8061091a816103f5565b0390f35b610188565b60ff60f81b1690565b61093590610923565b9052565b5190565b60209181520190565b90825f9392825e0152565b601f801991011690565b61097a6109836020936109889361097181610939565b9384809361093d565b95869101610946565b610951565b0190565b5190565b60209181520190565b60200190565b6109a890610194565b9052565b906109b98160209361099f565b0190565b60200190565b906109e06109da6109d38461098c565b8093610990565b92610999565b905f5b8181106109f05750505090565b909192610a09610a0360019286516109ac565b946109bd565b91019190916109e3565b93959194610a64610a59610a7895610a4b610a6e95610a859c9a610a3e60e08c01925f8d019061092c565b8a820360208c015261095b565b9088820360408a015261095b565b9760608701906102c1565b608085019061076d565b60a0830190610319565b60c08184039101526109c3565b90565b34610abf57610a9836600461042d565b610abb610aa3611b05565b93610ab2979597939193610182565b97889788610a13565b0390f35b610188565b34610af457610ad436600461042d565b610af0610adf611bb0565b610ae7610182565b9182918261077a565b0390f35b610188565b610b028161047c565b03610b0957565b5f80fd5b90503590610b1a82610af9565b565b90602082820312610b3557610b32915f01610b0d565b90565b61018c565b34610b6857610b52610b4d366004610b1c565b611caf565b610b5a610182565b80610b64816103f5565b0390f35b610188565b7f45e10a5e225b080160c0e76fbad2b0453844f9a2e77df2b70292e02b20ac684090565b610b99610b6d565b90565b9190610baf905f60208501940190610319565b565b34610be157610bc136600461042d565b610bdd610bcc610b91565b610bd4610182565b91829182610b9c565b0390f35b610188565b90816060910312610bf45790565b61050d565b9190608083820312610c215780610c15610c1e925f86016101ab565b93602001610be6565b90565b61018c565b34610c5557610c3f610c39366004610bf9565b906124b5565b610c47610182565b80610c51816103f5565b0390f35b610188565b34610c8a57610c6a36600461042d565b610c86610c756124c1565b610c7d610182565b9182918261077a565b0390f35b610188565b60051115610c9957565b5f80fd5b90503590610caa82610c8f565b565b9190604083820312610cd45780610cc8610cd1925f86016101ab565b93602001610c9d565b90565b61018c565b34610d0857610cf2610cec366004610cac565b90612841565b610cfa610182565b80610d04816103f5565b0390f35b610188565b34610d3b57610d25610d203660046103d7565b6128fa565b610d2d610182565b80610d37816103f5565b0390f35b610188565b34610d7057610d5036600461042d565b610d6c610d5b612905565b610d63610182565b91829182610b9c565b0390f35b610188565b5f80fd5b610d8a90610d85612919565b610dfe565b565b90565b610da3610d9e610da892610d8c565b6101d8565b61039d565b90565b610db490610d8f565b90565b60101b90565b90610dd162010000600160b01b0391610db7565b9181191691161790565b90565b90610df3610dee610dfa92610608565b610ddb565b8254610dbd565b9055565b80610e19610e13610e0e5f610dab565b6103a8565b916103a8565b14610e6b57610e29816004610dde565b610e537fc1b5345cce283376356748dc57f2dfa7120431d016fc7ca9ba641bc65f91411d91610608565b90610e5c610182565b80610e66816103f5565b0390a2565b5f634e46966960e11b815280610e83600482016103f5565b0390fd5b610e9090610d79565b565b610e9a612919565b610ea2610ea4565b565b610eac612a15565b565b610eb6610e92565b565b90610eca91610ec5612a1f565b610ecc565b565b90610ede91610ed9612a75565b6114b5565b610ee6612acd565b565b35610ef281610197565b90565b610efe906105e0565b90565b610f0a90610ef5565b90565b610f16906105fc565b90565b5f80fd5b634e487b7160e01b5f52604160045260245ffd5b90610f3b90610951565b810190811067ffffffffffffffff821117610f5557604052565b610f1d565b60e01b90565b90505190610f6d82610197565b565b90505190610f7c826103b4565b565b60051115610f8857565b5f80fd5b90505190610f9982610f7e565b565b67ffffffffffffffff1690565b610fb181610f9b565b03610fb857565b5f80fd5b90505190610fc982610fa8565b565b60e08183031261103657610fe1825f8301610f60565b92610fef8360208401610f6f565b92610ffd8160408501610f8c565b9261100b8260608301610f6f565b9261103361101c8460808501610fbc565b9361102a8160a08601610f60565b9360c001610f60565b90565b61018c565b919061104e905f602085019401906102c1565b565b611058610182565b3d5f823e3d90fd5b6002111561106a57565b5f80fd5b9050519061107b82611060565b565b909160c0828403126110dc57611095835f8401610f6f565b926110a3816020850161106e565b926110b18260408301610f60565b926110d96110c28460608501610f6f565b936110d08160808601610f6f565b9360a001610f60565b90565b61018c565b600211156110eb57565b6102ce565b906110fa826110e1565b565b6005111561110657565b6102ce565b90611115826110fc565b565b3561112181610c8f565b90565b61112d81610316565b0361113457565b5f80fd5b3561114281611124565b90565b61117a61118194611170606094989795611166608086019a5f870190610319565b60208501906102c1565b6040830190610309565b0190610319565b565b60200190565b5190565b5f80fd5b5f80fd5b5f80fd5b9035906001602003813603038212156111db570180359067ffffffffffffffff82116111d6576020019160018202360383136111d157565b611195565b611191565b61118d565b5f80fd5b906111f76111f0610182565b9283610f31565b565b67ffffffffffffffff811161121757611213602091610951565b0190565b610f1d565b90825f939282370152565b9092919261123c611237826111f9565b6111e4565b93818552602085019082840111611258576112569261121c565b565b6111e0565b611268913691611227565b90565b611274816106d0565b0361127b57565b5f80fd5b9050519061128c8261126b565b565b906020828203126112a7576112a4915f0161127f565b90565b61018c565b9160206112cd9294936112c660408201965f8301906102c1565b019061076d565b565b6112d960806111e4565b90565b906112e690610194565b9052565b906112f4906102f1565b9052565b9061130290610316565b9052565b6113109051610194565b90565b5f1b90565b906113245f1991611313565b9181191691161790565b90565b9061134661134161134d926101db565b61132e565b8254611318565b9055565b61135b90516102f1565b90565b9061136a60ff91611313565b9181191691161790565b61137d906102f1565b90565b90565b9061139861139361139f92611374565b611380565b825461135e565b9055565b6113ad9051610316565b90565b6113b990610316565b90565b6113c59061020d565b90565b906113dd6113d86113e4926113b0565b6113bc565b8254611318565b9055565b906114456060600361144b9461140b5f82016114055f8801611306565b90611331565b6114246001820161141e60208801611351565b90611383565b61143d60028201611437604088016113a3565b906113c8565b019201611306565b90611331565b565b90611457916113e8565b565b634e487b7160e01b5f52601160045260245ffd5b61147c61148291939293610194565b92610194565b820180921161148d57565b611459565b9160206114b39294936114ac60408201965f830190610309565b01906102c1565b565b906114c15f8201610ee8565b6114d36114cd84610194565b91610194565b0361192a576115399160e061150f61150a7f0000000000000000000000000000000000000000000000000000000000000000610f01565b610f0d565b634768d4ef9061152e8492611522610182565b97889485938493610f5a565b83526004830161103b565b03915afa8015611925575f8080808080809991509491959392936118ea575b509091939296936115bf60c06115956115907f0000000000000000000000000000000000000000000000000000000000000000610f01565b610f0d565b63117a5b90906115b486926115a8610182565b95869485938493610f5a565b83526004830161103b565b03915afa9081156118e5575f809290506118b3575b506115e76115e15f6110f0565b916110f0565b03611897576115ff6115f9600161110b565b9161110b565b0361187b578261161f6116196116145f610dab565b6103a8565b916103a8565b1461185f5760206116b5611698611634610b6d565b6116806116425f8c01610ee8565b916116728c61165e60406116578a8401611117565b9201611138565b90611667610182565b9586948a8601611145565b868201810382520382610f31565b61169261168c82611189565b91611183565b20612af1565b6116af6116a98a6060810190611199565b9061125d565b90612b0e565b6116e66116e17f0000000000000000000000000000000000000000000000000000000000000000610f01565b610f0d565b61170863a3dc85d89492946117136116fc610182565b96879586948594610f5a565b8452600484016112ac565b03915afa801561185a5761172f915f9161182c575b50156106d0565b61181057836117bf6020926117c6946117a76117cc986117968b61178d611763604061175c8c8501611117565b9301611138565b611784429361177c6117736112cf565b975f89016112dc565b8c87016112ea565b604085016112f8565b606083016112dc565b6117a2600587906101f7565b61144d565b8391908a9088926117b9888d01611117565b94612d08565b9401611117565b9361146d565b6117f67f6a0ab0c712a699d1df16f75f71a5abd3cfbd3600582271a1efe8026787784530926101db565b9261180b611802610182565b92839283611492565b0390a2565b5f630574e98560e01b815280611828600482016103f5565b0390fd5b61184d915060203d8111611853575b6118458183610f31565b81019061128e565b5f611728565b503d61183b565b611050565b5f630c2d663f60e21b815280611877600482016103f5565b0390fd5b5f63486d8ba360e11b815280611893600482016103f5565b0390fd5b5f632a580d6d60e01b8152806118af600482016103f5565b0390fd5b6118d4915060c03d81116118de575b6118cc8183610f31565b81019061107d565b50505050906115d4565b503d6118c2565b611050565b94505050505061191291935060e03d811161191e575b61190a8183610f31565b810190610fcb565b97959093929491611558565b503d611900565b611050565b5f630871c42b60e21b815280611942600482016103f5565b0390fd5b9061195091610eb8565b565b5f90565b60a01c90565b60ff1690565b61196e61197391611956565b61195c565b90565b6119809054611962565b90565b61198b611952565b506119966001611976565b90565b6119a1612919565b6119a96119ab565b565b6119bc6119b75f610dab565b61314d565b565b6119c6611999565b565b6119d0613163565b6119d86124c1565b6119ea6119e4836103a8565b916103a8565b036119fa576119f89061314d565b565b611a15905f91829163118cdaa760e01b83526004830161077a565b0390fd5b611a21612919565b611a29611a2b565b565b611a336131d0565b565b611a3d611a19565b565b5f90565b606090565b5f90565b5f90565b5f90565b606090565b611a62906105fc565b90565b611a79611a74611a7e92610d8c565b611313565b610316565b90565b611a95611a90611a9a92610d8c565b6101d8565b610194565b90565b67ffffffffffffffff8111611ab55760208091020190565b610f1d565b90611acc611ac783611a9d565b6111e4565b918252565b369037565b90611afb611ae383611aba565b92602080611af18693611a9d565b9201910390611ad1565b565b600f60f81b90565b611b0d611a3f565b50611b16611a43565b50611b1f611a43565b50611b28611a48565b50611b31611a4c565b50611b3a611a50565b50611b43611a54565b50611b4c6131dd565b90611b5561321d565b904690611b6130611a59565b90611b6b5f611a65565b90611b7d611b785f611a81565b611ad6565b90611b86611afd565b96959493929190565b611b9b611ba09161020d565b61072c565b90565b611bad9054611b8f565b90565b611bb8611a4c565b50611bc25f611ba3565b90565b611bd690611bd1612919565b611c2e565b565b90611be561ffff91611313565b9181191691161790565b611c03611bfe611c089261047c565b6101d8565b61047c565b90565b90565b90611c23611c1e611c2a92611bef565b611c0b565b8254611bd8565b9055565b80611c48611c42611c3d6107e3565b61047c565b9161047c565b11611c9357611c58816004611c0e565b611c8e7f15189fb9f7333d3c2ac875339ddb50cd49f554b5ed014b4b06111a437ec0b0c591611c85610182565b91829182610490565b0390a1565b5f635ff85e3f60e01b815280611cab600482016103f5565b0390fd5b611cb890611bc5565b565b90611ccc91611cc7612a1f565b611cce565b565b90611ce091611cdb612a75565b611f2b565b611ce8612acd565b565b90611d2e60406002611d3494611d0d5f8201611d075f8801610ee8565b90611331565b611d2660018201611d2060208801611117565b90611383565b019201611138565b906113c8565b565b90611d4091611cea565b565b611d4c60606111e4565b90565b90611d9e611d956002611d60611d42565b94611d77611d6f5f8301610229565b5f88016112dc565b611d8f611d8660018301610250565b602088016112ea565b01610274565b604084016112f8565b565b611da990611d4f565b90565b67ffffffffffffffff8111611dc45760208091020190565b610f1d565b90611ddb611dd683611dac565b6111e4565b918252565b369037565b90611e0a611df283611dc9565b92602080611e008693611dac565b9201910390611de0565b565b5f910312611e1657565b61018c565b611e249061110b565b90565b611e3090611e1b565b9052565b5190565b60209181520190565b60200190565b611e50906103a8565b9052565b90611e6181602093611e47565b0190565b60200190565b90611e88611e82611e7b84611e34565b8093611e38565b92611e41565b905f5b818110611e985750505090565b909192611eb1611eab6001928651611e54565b94611e65565b9101919091611e8b565b611ec490611a81565b9052565b969593611f299591611f1391611f0660a096611efc611f219760208e611ef560c08201985f8301906102c1565b0190611e27565b60408c019061076d565b89820360608b0152611e6b565b9087820360808901526109c3565b940190611ebb565b565b90611f375f8201610ee8565b611f49611f4384610194565b91610194565b0361249957611faf9160e0611f85611f807f0000000000000000000000000000000000000000000000000000000000000000610f01565b610f0d565b634768d4ef90611fa48492611f98610182565b97889485938493610f5a565b83526004830161103b565b03915afa908115612494575f808080808080999150939694919294612451575b5060c06120349196949293989661200d6120087f0000000000000000000000000000000000000000000000000000000000000000610f01565b610f0d565b61202963117a5b9061201d610182565b95869485938493610f5a565b83526004830161103b565b03915afa90811561244c575f8092905061241a575b5061205d61205760016110f0565b916110f0565b036123fe5761207561206f600161110b565b9161110b565b036123e2573361208d612087846103a8565b916103a8565b1415806123c7575b6123ab576120b8856120b36120ac600687906105ca565b3390610614565b611d36565b336120cb6120c5846103a8565b916103a8565b145f1461239f576120f06120eb825b6120e6600687906105ca565b610614565b611da0565b6120fc60208201611351565b61210e6121085f6102f1565b916102f1565b0361211d575b50505050505050565b61212960208701611117565b61214661214061213b60208501611351565b6102f1565b916102f1565b14908161236e575b505f1461223e57826121e26121e9936020936121ca6121ef98976121b98b6121b0612186604061217f8c8501611117565b9301611138565b6121a7429361219f6121966112cf565b975f89016112dc565b8c87016112ea565b604085016112f8565b606083016112dc565b6121c5600587906101f7565b61144d565b8391908a9088926121dc888d01611117565b94612d08565b9401611117565b9361146d565b6122197f6a0ab0c712a699d1df16f75f71a5abd3cfbd3600582271a1efe8026787784530926101db565b9261222e612225610182565b92839283611492565b0390a25b5f808080808080612114565b5050925050506122556122505f611a81565b611de5565b6122666122615f611a81565b611ad6565b906122986122937f0000000000000000000000000000000000000000000000000000000000000000610f01565b610f0d565b6380f364769084916004946122ac5f610dab565b9490915f95843b15612369575f966122d89488946122e3936122cc610182565b9b8c9a8b998a98610f5a565b885260048801611ec8565b03925af1801561236457612338575b5061231d7f0959dd20b83b57531035e6bb80446af198f665c029c614373299a524a18b6299916101db565b90612326610182565b80612330816103f5565b0390a2612232565b612357905f3d811161235d575b61234f8183610f31565b810190611e0c565b5f6122f2565b503d612345565b611050565b610f19565b905061239861239261238d6040612386818b01611138565b94016113a3565b610316565b91610316565b145f61214e565b6120f06120eb836120da565b5f63abca351760e01b8152806123c3600482016103f5565b0390fd5b50336123db6123d5836103a8565b916103a8565b1415612095565b5f63486d8ba360e11b8152806123fa600482016103f5565b0390fd5b5f632a580d6d60e01b815280612416600482016103f5565b0390fd5b61243b915060c03d8111612445575b6124338183610f31565b81019061107d565b5050505090612049565b503d612429565b611050565b92505050612034955060c0935061247f915060e03d811161248d575b6124778183610f31565b810190610fcb565b995093965093909193611fcf565b503d61246d565b611050565b5f630871c42b60e21b8152806124b1600482016103f5565b0390fd5b906124bf91611cba565b565b6124c9611a4c565b506124d46001611ba3565b90565b906124e9916124e4612a1f565b6124eb565b565b906124fd916124f8612a75565b61251c565b612505612acd565b565b919061251a905f60208501940190610309565b565b9061257d60e061255361254e7f0000000000000000000000000000000000000000000000000000000000000000610f01565b610f0d565b634768d4ef906125728692612566610182565b95869485938493610f5a565b83526004830161103b565b03915afa801561283c575f8080808080809995929397915093956127f8575b5060c0612601919596929398956125da6125d57f0000000000000000000000000000000000000000000000000000000000000000610f01565b610f0d565b6125f663117a5b906125ea610182565b95869485938493610f5a565b83526004830161103b565b03915afa9081156127f3575f808080809593505050506127c1575b509061263161262b600461110b565b9161110b565b036127a55761264961264333926103a8565b916103a8565b03612789578061266961266361265e5f610dab565b6103a8565b916103a8565b1461276d57612729936126dd916126cf846126be896126b561268a5f611a65565b6126ac42936126a361269a6112cf565b975f89016112dc565b602087016112ea565b604085016112f8565b606083016112dc565b6126ca600587906101f7565b61144d565b839190889086928994612d08565b80849061271f61270d7fdc4c443a1d2ecd1a8b320c3b700945dd0ac07fa3932b4bab4caa226709cb2d78926101db565b92612716610182565b91829182612507565b0390a2929361146d565b6127537f6a0ab0c712a699d1df16f75f71a5abd3cfbd3600582271a1efe8026787784530926101db565b9261276861275f610182565b92839283611492565b0390a2565b5f630c2d663f60e21b815280612785600482016103f5565b0390fd5b5f63665b32d360e11b8152806127a1600482016103f5565b0390fd5b5f6310cec38560e21b8152806127bd600482016103f5565b0390fd5b6127e2915060c03d81116127ec575b6127da8183610f31565b81019061107d565b509350505061261c565b503d6127d0565b611050565b9250505061282791955060c09350612601925060e03d8111612835575b61281f8183610f31565b810190610fcb565b99959293975093955061259c565b503d612815565b611050565b9061284b916124d7565b565b61285e90612859612919565b61289b565b565b9061287160018060a01b0391611313565b9181191691161790565b9061289061288b61289792610608565b610ddb565b8254612860565b9055565b6128a681600161287b565b6128ae611bb0565b906128e26128dc7f38d16b8cac22d99fc7c124b9cd0de2d3fa1faef420bfe791d8c362d765e2270093610608565b91610608565b916128eb610182565b806128f5816103f5565b0390a3565b6129039061284d565b565b61290d611a50565b5061291661325d565b90565b612921611bb0565b61293a61293461292f613163565b6103a8565b916103a8565b0361294157565b61296361294c613163565b5f91829163118cdaa760e01b83526004830161077a565b0390fd5b61296f613317565b6129776129c7565b565b60a01b90565b9061298e60ff60a01b91612979565b9181191691161790565b6129a1906106d0565b90565b90565b906129bc6129b76129c392612998565b6129a4565b825461297f565b9055565b6129d25f60016129a7565b6129da613163565b612a107f5db9ee0a495bf2e6ff9c91a7834c1ba4fdd244a5e8aa4e537bd38aeae4b073aa91612a07610182565b9182918261077a565b0390a1565b612a1d612967565b565b612a27611983565b612a2d57565b5f63d93c066560e01b815280612a45600482016103f5565b0390fd5b90565b612a60612a5b612a6592612a49565b6101d8565b610194565b90565b612a726002612a4c565b90565b612a7d61334a565b612a9f612a88612a68565b5f612a99612a946133bf565b6133d3565b01611331565b565b90565b612ab8612ab3612abd92612aa1565b6101d8565b610194565b90565b612aca6001612aa4565b90565b612aef612ad8612ac0565b5f612ae9612ae46133bf565b6133d3565b01611331565b565b612b0b90612afd611a50565b50612b0661325d565b6133d6565b90565b612b2d91612b2491612b1e611a4c565b5061345a565b9092919261352e565b90565b612b3c612b419161020d565b610440565b90565b612b4e9054612b30565b90565b612b65612b60612b6a9261047c565b6101d8565b610194565b90565b612b7c612b8291939293610194565b92610194565b91612b8e838202610194565b928184041490151715612b9d57565b611459565b90565b612bb9612bb4612bbe92612ba2565b6101d8565b610194565b90565b634e487b7160e01b5f52601260045260245ffd5b612be1612be791610194565b91610194565b908115612bf2570490565b612bc1565b612c06612c0c91939293610194565b92610194565b8203918211612c1757565b611459565b634e487b7160e01b5f52603260045260245ffd5b90612c3a82611e34565b811015612c4b576020809102010190565b612c1c565b90612c5a906103a8565b9052565b90612c688261098c565b811015612c79576020809102010190565b612c1c565b60101c90565b612c90612c9591612c7e565b61072c565b90565b612ca29054612c84565b90565b969593612d069591612cf091612ce360a096612cd9612cfe9760208e612cd260c08201985f8301906102c1565b0190611e27565b60408c019061076d565b89820360608b0152611e6b565b9087820360808901526109c3565b9401906102c1565b565b94929391909383612d21612d1b5f6102f1565b916102f1565b146130cd57612d3181849061146d565b9282612d4d612d47612d425f610dab565b6103a8565b916103a8565b146130c4575b612d8e612d86612d7586612d6f612d6a6004612b44565b612b51565b90612b6d565b612d80612710612ba5565b90612bd5565b948590612bf7565b92612dbd612da4612d9f6002612a4c565b611de5565b97612db889612db25f611a81565b90612c30565b612c50565b612dda81612dd589612dcf6001612aa4565b90612c30565b612c50565b612dec612de76002612a4c565b611ad6565b9580612e01612dfb60016102f1565b916102f1565b145f14612f125750505050612e2890612e2384612e1d5f611a81565b90612c5e565b6112dc565b612e4d612e345f611a81565b612e4884612e426001612aa4565b90612c5e565b6112dc565b5b612e7f612e7a7f0000000000000000000000000000000000000000000000000000000000000000610f01565b610f0d565b906380f364769492600295612e946004612c98565b95919295843b15612f0d575f96612ebf948894612eca93612eb3610182565b9b8c9a8b998a98610f5a565b885260048801612ca5565b03925af18015612f0857612edc575b50565b612efb905f3d8111612f01575b612ef38183610f31565b810190611e0c565b5f612ed9565b503d612ee9565b611050565b610f19565b80612f26612f2060026102f1565b916102f1565b145f14612f785750505050612f7290612f59612f415f611a81565b612f5486612f4e5f611a81565b90612c5e565b6112dc565b612f6d84612f676001612aa4565b90612c5e565b6112dc565b5b612e4e565b80612f8c612f8660036102f1565b916102f1565b145f1461300d5750505050612fee81612fcd612fb561300794612faf6002612a4c565b90612bd5565b612fc887612fc25f611a81565b90612c5e565b6112dc565b612fe8612fe386612fdd5f611a81565b90612c5e565b611306565b90612bf7565b61300284612ffc6001612aa4565b90612c5e565b6112dc565b5b612f73565b91935091935061302661302060046102f1565b916102f1565b145f146130a8576130526130395f611a81565b9361304d866130475f611a81565b90612c5e565b6112dc565b61306c6130666130615f610dab565b6103a8565b916103a8565b145f1461309f575061309a6130805f611a81565b5b6130958461308f6001612aa4565b90612c5e565b6112dc565b613008565b61309a90613081565b5f63c74a206d60e01b8152806130c0600482016103f5565b0390fd5b92508092612d53565b5f63c74a206d60e01b8152806130e5600482016103f5565b0390fd5b1b90565b9190600861310d91029161310760018060a01b03846130e9565b926130e9565b9181191691161790565b919061312d61312861313593610608565b610ddb565b9083546130ed565b9055565b61314b91613145611a4c565b91613117565b565b6131619061315c5f6001613139565b6135ff565b565b61316b611a4c565b503390565b613178612a1f565b613180613182565b565b61318d6001806129a7565b613195613163565b6131cb7f62e78cea01bee320cd4e420270b5ea74000d11b0c9f74754ebdbfc544b05a258916131c2610182565b9182918261077a565b0390a1565b6131d8613170565b565b90565b6131e5611a43565b5061321a7f000000000000000000000000000000000000000000000000000000000000000061321460026131da565b906137a1565b90565b613225611a43565b5061325a7f000000000000000000000000000000000000000000000000000000000000000061325460036131da565b906137a1565b90565b613265611a50565b5061326f30611a59565b6132a161329b7f00000000000000000000000000000000000000000000000000000000000000006103a8565b916103a8565b14806132dd575b5f146132d2577f000000000000000000000000000000000000000000000000000000000000000090565b6132da613860565b90565b504661331161330b7f0000000000000000000000000000000000000000000000000000000000000000610194565b91610194565b146132a8565b613328613322611983565b156106d0565b61332e57565b5f638dfc202b60e01b815280613346600482016103f5565b0390fd5b6133526138fe565b61335857565b5f633ee5aeb560e01b815280613370600482016103f5565b0390fd5b90565b61338b61338661339092613374565b611313565b610316565b90565b6133bc7f9b779b17422d0df92223018b32b4d1fa46e071723d6817e2486d003becc55f00613377565b90565b6133c7611a50565b506133d0613393565b90565b90565b6042916133e1611a50565b50604051917f19010000000000000000000000000000000000000000000000000000000000008352600283015260228201522090565b5f90565b90565b61343261342d6134379261341b565b6101d8565b610194565b90565b61344e61344961345392610194565b611313565b610316565b90565b5f90565b919091613465611a4c565b5061346e613417565b50613477611a50565b5061348183611189565b61349461348e604161341e565b91610194565b145f146134db576134d491926134a8611a50565b506134b1611a50565b506134ba613456565b506020810151606060408301519201515f1a9091926139ae565b9192909190565b506134e55f610dab565b906134f96134f4600294611189565b61343a565b91929190565b6004111561350957565b6102ce565b90613518826134ff565b565b61352661352b9161020d565b6101db565b90565b8061354161353b5f61350e565b9161350e565b145f1461354c575050565b8061356061355a600161350e565b9161350e565b145f14613583575f63f645eedf60e01b81528061357f600482016103f5565b0390fd5b80613597613591600261350e565b9161350e565b145f146135c5576135c16135aa8361351a565b5f91829163fce698f760e01b83526004830161103b565b0390fd5b6135d86135d2600361350e565b9161350e565b146135e05750565b6135fb905f9182916335e2f38360e21b835260048301610b9c565b0390fd5b6136085f611ba3565b613612825f61287b565b906136466136407f8be0079c531659141344cd1fd0a4f28419497f9722a3daafe3b4186f6b6457e093610608565b91610608565b9161364f610182565b80613659816103f5565b0390a3565b90565b61367561367061367a9261365e565b611313565b610316565b90565b61368760ff613661565b90565b634e487b7160e01b5f52602260045260245ffd5b90600160028304921680156136be575b60208310146136b957565b61368a565b91607f16916136ae565b60209181520190565b5f5260205f2090565b905f92918054906136f46136ed8361369e565b80946136c8565b916001811690815f1461374b575060011461370f575b505050565b61371c91929394506136d1565b915f925b81841061373357505001905f808061370a565b60018160209295939554848601520191019290613720565b92949550505060ff19168252151560200201905f808061370a565b90613770916136da565b90565b9061379361378c92613783610182565b93848092613766565b0383610f31565b565b61379e90613773565b90565b906137aa611a43565b506137b4826113b0565b6137cd6137c76137c261367d565b610316565b91610316565b14155f146137e257506137df90613b2f565b90565b6137ec9150613795565b90565b7f8b73c3c69bb8fe3d512ecc4cf759cc79239f7b179b0ffacaa9a75d522b39400f90565b9095949261385e9461384d6138579261384360809661383960a088019c5f890190610319565b6020870190610319565b6040850190610319565b60608301906102c1565b019061076d565b565b613868611a50565b506138716137ef565b6138e87f0000000000000000000000000000000000000000000000000000000000000000916138d97f0000000000000000000000000000000000000000000000000000000000000000466138c430611a59565b916138cd610182565b96879560208701613813565b60208201810382520382610f31565b6138fa6138f482611189565b91611183565b2090565b613906611952565b506139215f61391b6139166133bf565b6133d3565b01610229565b61393a61393461392f612a68565b610194565b91610194565b1490565b90565b61395561395061395a9261393e565b6101d8565b610194565b90565b60ff1690565b61396c9061395d565b9052565b6139a56139ac9461399b606094989795613991608086019a5f870190610319565b6020850190613963565b6040830190610319565b0190610319565b565b9392936139b9611a4c565b506139c2613417565b506139cb611a50565b506139d58561351a565b613a07613a017f7fffffffffffffffffffffffffffffff5d576e7357a4501ddfe92f46681b20a0613941565b91610194565b11613a945790613a2a602094955f94939293613a21610182565b94859485613970565b838052039060015afa15613a8f57613a425f51611313565b80613a5d613a57613a525f610dab565b6103a8565b916103a8565b14613a73575f91613a6d5f611a65565b91929190565b50613a7d5f610dab565b600191613a895f611a65565b91929190565b611050565b505050613aa05f610dab565b9060039291929190565b90565b613ac1613abc613ac692613aaa565b6101d8565b610194565b90565b67ffffffffffffffff8111613ae757613ae3602091610951565b0190565b610f1d565b90613afe613af983613ac9565b6111e4565b918252565b369037565b90613b2d613b1583613aec565b92602080613b238693613ac9565b9201910390613b03565b565b613b37611a43565b50613b4181613b9a565b90613b54613b4f6020613aad565b613b08565b918252602082015290565b613b73613b6e613b789261365e565b6101d8565b610194565b90565b90565b613b92613b8d613b9792613b7b565b6101d8565b610194565b90565b613baf613bb491613ba9611a48565b506113b0565b61351a565b613bbe60ff613b5f565b1680613bd3613bcd601f613b7e565b91610194565b11613bdb5790565b5f632cd44ac360e21b815280613bf3600482016103f5565b0390fdfea2646970667358221220a5941d9bd842cd4dc23e3eef4f62353f10b21d01307e2af33e343d478c5b586e64736f6c63430008210033","linkReferences":{}},"methodIdentifiers":{"ASYNC_RESULT_TYPEHASH()":"a3459796","MAX_PROTOCOL_FEE_BPS()":"6d947e4b","acceptOwnership()":"79ba5097","domainSeparator()":"f698da25","eip712Domain()":"84b0196e","owner()":"8da5cb5b","pause()":"8456cb59","paused()":"5c975abb","pendingOwner()":"e30c3978","protocolFeeBps()":"35659fb8","protocolFeeRecipient()":"64df049e","registry()":"7b103999","renounceOwnership()":"715018a6","resolveDispute(uint256,uint8)":"e55e4211","rtResults(uint256,address)":"58ffa5f1","settlements(uint256)":"08df7dc8","submitAsyncResult(uint256,(uint256,uint8,bytes32,bytes))":"486f288f","submitRealTimeHashResult(uint256,(uint256,uint8,bytes32))":"b57c67c3","transferOwnership(address)":"f2fde38b","unpause()":"3f4ba83a","updateProtocolFeeBps(uint16)":"90aef5be","updateProtocolFeeRecipient(address)":"1df47f80"},"id":57}